:020000040000FA
:100000000C9464000C948C000C948C000C94851758
:100010000C9485170C9485170C948C000C94611625
:100020000C948C000C948C000C948C000C948C0020
:100030000C948C000C948C000C948C000C948C0010
:100040000C943B170C948C000C9409170C94E31639
:100050000C948C000C948C000C948C000C948C00F0
:100060000C948F170C948C000000000024002700D3
:100070002A0000000000250028002B0002000000DC
:1000800000230026002900040404040404040402DC
:100090000202020202030303030303010204081025
:1000A00020408001020408102001020408102000F2
:1000B0000000080002010000030407000000000027
:1000C00000000000AE18881F11241FBECFEFD8E03B
:1000D000DEBFCDBF11E0A0E0B1E0EAEAF7E402C084
:1000E00005900D92AE37B107D9F725E0AEE7B1E044
:1000F00001C01D92A037B207E1F710E0C3E6D0E0DF
:1001000004C02197FE010E94B821C236D107C9F769
:100110000E940D190C94C8230C94000091E0909358
:10012000480480936A041092490410926B04089565
:1001300090911B0480911A042FEF3FEF981748F419
:10014000E92FF0E0E650FC4F208130E09F5F909374
:100150001B04C901089590911B0480911A042FEF8C
:100160003FEF981748F4E92FF0E0E650FC4F20816C
:1001700030E09F5F90931B04C9010895089508958E
:100180000895AF92BF92CF92DF92EF92FF920F93BA
:100190001F93CF93DF936C017B018B01040F151F1D
:1001A000EB015E01AE18BF08C017D10759F0699185
:1001B000D601ED91FC910190F081E02DC6010995E9
:1001C000892B79F7C501DF91CF911F910F91FF9096
:1001D000EF90DF90CF90BF90AF900895FC01538DCA
:1001E000448D252F30E0842F90E0821B930B541711
:1001F00010F0CF96089501970895FC01918D828D9E
:10020000981761F0A28DAE0FBF2FB11D5D968C9136
:10021000928D9F5F9F73928F90E008958FEF9FEF75
:100220000895FC01918D828D981731F0828DE80F31
:10023000F11D858D90E008958FEF9FEF0895FC01EB
:10024000918D228D892F90E0805C9F4F821B9109B8
:100250008F73992708958CE694E00E941F0121E096
:10026000892B09F420E0822F089580E090E0892B0B
:1002700029F00E942B0181110C9400000895FC01CB
:10028000A48DA80FB92FB11DA35ABF4F2C91848DF7
:1002900090E001968F739927848FA689B7892C9354
:1002A000A089B1898C91837080648C93938D848DA7
:1002B000981306C00288F389E02D80818F7D8083AA
:1002C0000895EF92FF920F931F93CF93DF93EC016A
:1002D00081E0888F9B8D8C8D98131AC0E889F989ED
:1002E000808185FF15C09FB7F894EE89FF896083F0
:1002F000E889F98980818370806480839FBF81E071
:1003000090E0DF91CF911F910F91FF90EF900895B2
:10031000F62E0B8D10E00F5F1F4F0F731127E02E8D
:100320008C8D8E110CC00FB607FCFACFE889F989C5
:10033000808185FFF5CFCE010E943F01F1CFEB8D8B
:10034000EC0FFD2FF11DE35AFF4FF0829FB7F89499
:100350000B8FEA89FB8980818062CFCFCF93DF93B7
:10036000EC01888D8823B9F0AA89BB89E889F989CD
:100370008C9185FD03C0808186FD0DC00FB607FC02
:10038000F7CF8C9185FFF2CF808185FFEDCFCE0135
:100390000E943F01E9CFDF91CF910895833081F032
:1003A00028F4813099F08230A9F008958730A9F0BF
:1003B0008830C9F08430B1F4809180008F7D03C013
:1003C000809180008F7780938000089584B58F7727
:1003D00084BD089584B58F7DFBCF8091B0008F7769
:1003E0008093B00008958091B0008F7DF9CFCF93B6
:1003F000DF93EEEBF0E08491EAEAF0E0D491E6E9F5
:10040000F0E0C491CC23A1F081110E94CE01EC2F29
:10041000F0E0EE0FFF1FE358FF4FA591B491EC9170
:10042000ED2381E090E009F480E0DF91CF91089521
:1004300080E090E0FACF1F93CF93DF93282F30E036
:10044000F901E155FF4F8491F901E556FF4FD49131
:10045000F901E957FF4FC491CC23A9F0162F811160
:100460000E94CE01EC2FF0E0EE0FFF1FEE58FF4F81
:10047000A591B4918FB7F894EC91111108C0D09563
:10048000DE23DC938FBFDF91CF911F910895DE2B88
:10049000F8CFCF93DF9390E0FC01E556FF4F249116
:1004A00089579F4FFC0184918823D1F090E0880FF9
:1004B000991FFC01E859FF4FA591B491FC01EE583A
:1004C000FF4FC591D49161110EC09FB7F8948C91E4
:1004D000E22FE0958E238C932881E223E8839FBF4F
:1004E000DF91CF9108958FB7F894EC91E22BEC93C4
:1004F0008FBFF6CF3FB7F8948091D9039091DA037C
:10050000A091DB03B091DC0326B5A89B05C02F3F6B
:1005100019F00196A11DB11D3FBFBA2FA92F982F29
:100520008827BC01CD01620F711D811D911D42E024
:10053000660F771F881F991F4A95D1F708958F92EC
:100540009F92AF92BF92CF92DF92EF92FF924B01B8
:100550005C010E947A026B017C010E947A026C1994
:100560007D098E099F09683E734081059105A8F3B6
:1005700021E0821A9108A108B10888EEC80E83E034
:10058000D81EE11CF11C81149104A104B10429F7C7
:10059000FF90EF90DF90CF90BF90AF909F908F90A3
:1005A00008958F929F92AF92BF92CF92DF92EF9277
:1005B000FF920F931F93CF93DF931092F503109246
:1005C000F6031092F7031092F8031092F90361E01A
:1005D0008FE00E94490260E08FE00E941B0264E10C
:1005E00070E080E090E00E949F0261E08FE00E9456
:1005F0001B028BE990E00197F1F760E08FE00E9429
:100600004902C1E1D7E20E94F701892B89F42197C1
:10061000D1F78EEF9FEFDF91CF911F910F91FF9058
:10062000EF90DF90CF90BF90AF909F908F90089504
:10063000C1E1D7E20E94F701019719F42197D1F7A0
:10064000E8CF08E210E0C7E0D0E0EE24E394F12C1C
:1006500091E1C92E97E2D92E0E94F701892B29F446
:1006600081E0C81AD108C1F7D4CF0E947A024B01A9
:100670005C0181E1C82E87E2D82E0E94F701019724
:1006800029F481E0C81AD108C1F7C3CF0E947A02C9
:10069000681979098A099B096932710581059105F3
:1006A00068F0ED2FF0E0E351FC4F808597010C2EB0
:1006B00001C0220F0A94EAF7822B8087C11133C050
:1006C000DF5FC7E00150110909F0C2CFC091F50307
:1006D0006C2F70E090E080E00E94C51F6093ED03F6
:1006E0007093EE038093EF039093F003D091F703A0
:1006F0006D2F70E090E080E00E94C51F6093F103D1
:100700007093F2038093F3039093F403CD0F81E091
:1007100090E02091F903C21302C090E080E091952F
:100720008195910978CFC150CDCF2FB7F8946091C2
:10073000D5037091D6038091D7039091D8032FBF32
:1007400008958F929F92AF92BF92EF92FF920F9374
:100750001F93CF93DF937B018C01D0E0C0E00E9418
:10076000950360937404709375048093760490935A
:1007700077048CE694E00E94FD0097FF27C00E945A
:1007800095038090740490907504A0907604B090C6
:100790007704681979098A099B0980907004909000
:1007A0007104A0907204B0907304681579058A05ED
:1007B0009B05F8F2CE01DF91CF911F910F91FF9031
:1007C000EF90BF90AF909F908F900895F801819324
:1007D0008F012196EC16FD0611F6ECCFCF93DF9337
:1007E00000D000D0CDB7DEB719821A821B821C82DE
:1007F00084E690E0A0E0B0E08093700490937104F0
:10080000A0937204B093730464E070E0CE0101968B
:100810000E94A1038981813051F48A818F3F39F48C
:100820008B818F3F21F481E09C819F3F09F080E024
:100830000F900F900F900F90DF91CF9108950F932D
:100840001F93CF93DF93CDB7DEB728970FB6F894F9
:10085000DEBF0FBECDBF8C01CE01019628E0FC01AA
:1008600011922A95E9F744E650E060E070E0409389
:10087000700450937104609372047093730468E081
:1008800070E00E94A1030897A1F58981813789F55D
:100890008E818F3F71F58F818F3F59F588858F3F0E
:1008A00041F52D818C8190E0B0E0A0E0DC0199273A
:1008B0008827B22B2A81822B4B8150E0542F44276A
:1008C000052E000C660B770B842B952BA62BB72BD4
:1008D000F80180839183A283B38381E028960FB6C9
:1008E000F894DEBF0FBECDBFDF91CF911F910F9166
:1008F000089580E0F3CF2091CC01211109C021E0BF
:100900002093CC013091090520910A053CBD2DBDF5
:1009100060E0FC0184810C941B0261E0FC01848195
:100920000E941B028091CC0181111092CC0108958C
:100930008EBD00000DB407FEFDCF8EB508958FEF7C
:100940000C9498040F931F93CF93DF93EC010E94B4
:1009500095038B010E949F048F3F69F00E949503CD
:10096000601B710B6C177D07A8F380E0DF91CF91BE
:100970001F910F91089581E0F9CFCF92DF92EF920E
:10098000FF920F931F93CF93DF93EC01162F690112
:100990007A018E81882389F08F8198859C012F5F51
:1009A0003F4F38872F838230924018F40E949F0473
:1009B000F3CFCE010E948D041E82CE010E947B04E3
:1009C0008CE291E00E94A204812F80640E9498042E
:1009D00008E110E0D701C601002E04C0B695A79526
:1009E000979587950A94D2F70E94980408501109A8
:1009F000083F8FEF180771F78FEF0E94980410E0FF
:100A00000E949F048A8787FF04C01F3F11F01F5F69
:100A1000F7CFDF91CF911F910F91FF90EF90DF9073
:100A2000CF900895CF92DF92EF92FF920F93CF93E2
:100A3000DF93EC01690182E1411551056105710502
:100A400099F08B85833039F089E0440F551F661F7C
:100A5000771F8A95D1F79A01AB0168E1CE010E9418
:100A6000BD04882319F084E08D832DC08EEF0E9491
:100A7000980476018EEFD81AF70181917F010E94C8
:100A80009804EC14FD04C1F78FEF0E9498048FEFD7
:100A90000E9498040E949F048A878F71853071F4A8
:100AA000011116C0CE010E948D0481E0DF91CF912B
:100AB0000F91FF90EF90DF90CF90089581E18D83AB
:100AC000CE010E948D04CE010E948D0480E0EECF05
:100AD00088E592E00E94A204811102C085E1C4CFA2
:100AE00020E030E0A9016DE0CE010E94BD04882322
:100AF00011F084E1B9CF0E949F048111FACFD2CFC7
:100B00000F934091CE015091CF016091D00170912F
:100B1000D101411551056105710589F0082F22EDBC
:100B200031E090E080E00E941205882349F01092A5
:100B3000CE011092CF011092D0011092D10181E02C
:100B40000F9108950F93CF93C82F8091CD018111FC
:100B500005C0C1E08C2FCF910F9108954091020103
:100B60005091030160910401709105010C2F22ED59
:100B700031E090E080E00E941205811102C0C0E0E7
:100B8000E9CFCC2331F381E00E9480058823B9F3BB
:100B90001092CD01DFCFAF92BF92CF92DF92EF9252
:100BA000FF921F93CF93DF936B017C01142F8091F1
:100BB000020190910301A0910401B09105018C15EF
:100BC0009D05AE05BF0509F4ADC081E00E94A205F8
:100BD0008823E1F1809106008823A1F08091000034
:100BE00090910100A0910200B0910300C816D906AF
:100BF000EA06FB0639F48091070090910800892BE2
:100C000009F44FC0C0920000D0920100E0920200AF
:100C1000F092030080910B00A7019601833039F018
:100C200099E0220F331F441F551F9A95D1F761E1B8
:100C300090E080E00E94BD04882391F083E08093DF
:100C4000050090E080E00E948D0480E0DF91CF916C
:100C50001F91FF90EF90DF90CF90BF90AF900895DD
:100C60000E949503EB010E949F0480930A008F3F2E
:100C700079F40E9495036C1B7D0B6D32714098F3E3
:100C80008FE08093050090E080E00E948D04D9CF32
:100C90008E3FC1F5109208001092070081E080930A
:100CA0000600C2EDD1E082EDA82E83E0B82E0E94AE
:100CB0009F048993AC16BD06D1F7809107009091EF
:100CC00008009E5F90930800809307002091090020
:100CD000222319F081159240E8F0809106008823C4
:100CE000C9F080910700909108009C012F5F3F4F51
:100CF00030930800209307008230924028F40E942D
:100D00009F04EFCF8DE0BDCF90E080E00E948D0486
:100D100010920600C0920201D0920301E0920401F9
:100D2000F09205014091CD01412B4093CD0181E02E
:100D30008DCF4F925F926F927F928F929F92AF92E0
:100D4000BF92CF92DF92EF92FF920F931F93CF93B8
:100D5000DF93EC01423051056105710590F480E0AC
:100D6000DF91CF911F910F91FF90EF90DF90CF9087
:100D7000BF90AF909F908F907F906F905F904F90BB
:100D8000089589859A85AB85BC850196A11DB11D05
:100D900084179507A607B70710F3CB88DC88ED8882
:100DA000FE888F89803109F042C0BB27A72F962F7C
:100DB000852F480159012A013B01C80ED91EEA1EA0
:100DC000FB1E8091020190910301A0910401B0915A
:100DD0000501C816D906EA06FB0699F58F89803108
:100DE000C1F5B301A201552766277727440F551F88
:100DF0004E525E4FFA01918280828091CD018160D6
:100E00008093CD018A89823080F08D819E81AF816F
:100E1000B8858C0D9D1DAE1DBF1D8093CE01909396
:100E2000CF01A093D001B093D10181E099CFDB0134
:100E3000CA01E7E0B695A79597958795EA95D1F70A
:100E4000B8CF40E0C701B6010E94CB058111C6CFE3
:100E500086CFB301A2014F77552766277727440F26
:100E6000551F440F551F4E525E4FFA0180829182EA
:100E7000A282B382C2CF8F929F92AF92BF92CF9243
:100E8000DF92EF92FF920F931F93CF93DF93FC01BA
:100E900081859285A385B4850196A11DB11D841716
:100EA0009507A607B70770F480E0DF91CF911F91F7
:100EB0000F91FF90EF90DF90CF90BF90AF909F90F9
:100EC0008F90089583889488A588B6888789803113
:100ED00089F5BB27A72F962F852FE9016A017B0192
:100EE0008F01BC01CD01680D791D8A1D9B1D80906D
:100EF000020190900301A0900401B09005018616B4
:100F00009706A806B90601F5F8018789803111F521
:100F1000DD24EE24FF24F601EE0FFF1FEE52FE4FFC
:100F200080819181B0E0A0E088839983AA83BB830C
:100F300081E0BBCFDB01CA01C7E0B695A7959795C5
:100F40008795CA95D1F7C9CF40E00E94CB058111A2
:100F5000DBCFAACFE894C7F8DD24EE24FF24F60106
:100F6000EE0FFF1FEE0FFF1FEE52FE4F80819181AB
:100F7000A281B381BF70D8CF8F929F92AF92BF9260
:100F8000CF92DF92EF92FF920F931F93CF93DF9355
:100F9000EC018D8181110EC080E0DF91CF911F9116
:100FA0000F91FF90EF90DF90CF90BF90AF909F9008
:100FB0008F9008950B891C892D893E890417150788
:100FC0002607370748F34A015B01823031F48A86ED
:100FD0009B86AC86BD8681E0E0CF81149104A1049C
:100FE000B10449F41E821F82188619861A861B8650
:100FF0001C861D86F0CF0A851B852C853D85EB8DD3
:10100000FC8D858590E00996B901A80141505109F0
:1010100061097109082E04C0769567955795479523
:101020000A94D2F775016401E1E0CE1AD108E10813
:10103000F10804C0F694E794D794C7948A95D2F740
:10104000C416D506E606F70620F0012B022B032B6B
:1010500011F58F89988DA98DBA8D8E839F83A8876E
:10106000B9878E010A5F1F4FC114D104E104F10456
:1010700009F4ADCF4E815F816885798598018B8DAC
:101080009C8D0E943B0791E0C91AD108E108F10844
:101090008111EACF81CFC41AD50AE60AF70AE1CF57
:1010A0003F924F925F926F927F928F929F92AF92F8
:1010B000BF92CF92DF92EF92FF920F931F93CF9345
:1010C000DF93CDB7DEB72C970FB6F894DEBF0FBE17
:1010D000CDBF5C01DC015B968D909C905C97169671
:1010E0004D905D906D907C9019974114510461046E
:1010F000710409F468C0BFEF4B1A5B0A6B0A7B0AE4
:10110000312CF40181859285A385B4859C01AD01C4
:101110002F5F3F4F4F4F5F4F29873A874B875C8741
:10112000730162011D821E821F821886F40181856F
:101130009285A385B4852D813E814F8158852817DE
:1011400039074A075B0708F056C089859A85AB8541
:10115000BC858C159D05AE05BF0550F482E0C82EF8
:10116000D12CE12CF12C92E0492E512C612C712CC8
:101170009E012F5F3F4FB701A601C4010E943B07AC
:101180008823C9F189819A81AB81BC81892B8A2B03
:101190008B2B09F1260137019FEF491A590A690A79
:1011A000790A2D813E814F8158852F5F3F4F4F4FE8
:1011B0005F4F2D833E834F8358873FEFC31AD30A77
:1011C000E30AF30AB3CFF401408051806280738058
:1011D0003324339496CFC414D504E604F70409F7F6
:1011E0000FEF1FEF2FEF3FE0B701A601C4010E94F0
:1011F0009906811119C080E02C960FB6F894DEBFD5
:101200000FBECDBFDF91CF911F910F91FF90EF9057
:10121000DF90CF90BF90AF909F908F907F906F9016
:101220005F904F903F900895D50116964D915D9136
:101230006D917C911997411551056105710539F042
:1012400097018601C4010E9499068823A1F2D50165
:101250001696CD92DD92ED92FC921997332051F0C3
:10126000D701C6010196A11DB11DF40180839183B0
:10127000A283B383F5018789908DA18DB28D892BCF
:101280008A2B8B2B39F48481C78AD08EE18EF28E23
:1012900080688483F50184818062848381E0ACCF9F
:1012A0001F93CF93DF93EC01162F8C8187FF2AC009
:1012B0006E857F858889998941E00E94CB058823C6
:1012C00061F1EA8980E2E89FF0011124EE52FE4FBD
:1012D000309719F18D81823040F48B899C89AD89DA
:1012E000BE89848F958FA68FB78F8F89988D938FA6
:1012F000828F8F89988DA98DBA8DB58BA48B8C81A7
:101300008F778C83111103C08C818F7E8C83812F0A
:10131000DF91CF911F910C94A20580E0DF91CF91D6
:101320001F9108951F93CF93DF93EC018D8181303E
:1013300031F090E080E0DF91CF911F9108958C8192
:1013400081FFF7CF82FD1BC090E080E00E947B040C
:101350000E949F04182F90E080E00E948D041F3FA0
:1013600041F78C8185FF1EC08D81882321F060E0CC
:10137000CE010E9450098C818F7D8C83DACF4B89FE
:101380005C896D897E898A859B85AC85BD8584173E
:101390009507A607B707C1F2CE010E94BC078111CD
:1013A000D3CFC7CF4091CE015091CF016091D001F2
:1013B0007091D101452B462B472B21F080E00E94F4
:1013C0008005B7CF80618C832A853B85317080E0B2
:1013D00092E0821B930BAFCF9F92AF92BF92CF92BE
:1013E000DF92EF92FF920F931F93CF93DF9300D082
:1013F00000D01F92CDB7DEB78C016D83DC0115964E
:101400008C911597813009F0B9C014968C9181FFA9
:10141000B5C082FD9FC0D8015B96ED91FC915C97B1
:101420001A96AD90BD90CD90DC901D9794809A94C3
:10143000B601A50189E076956795579547958A95F8
:10144000D1F79422B1E0BB22992009F49FC0D801C2
:101450005B96ED91FC915C971696CD90DD90ED90AA
:10146000FC901997B2E0CB1AD108E108F108858504
:1014700004C0CC0CDD1CEE1CFF1C8A95D2F74685FF
:10148000578560897189C40ED51EE61EF71EC90CEA
:10149000D11CE11CF11CA114B10409F00AC1F8012E
:1014A000428553856485758583899489A589B68924
:1014B000481759076A077B0708F4FBC081E00E94C0
:1014C000A205882309F45AC0C0920201D0920301F8
:1014D000E0920401F09205018091CD01816080933A
:1014E000CD01F501EE52FE4F8D818083F80182859A
:1014F0009385A485B5850196A11DB11D828793872B
:10150000A487B5874389548965897689481759071F
:101510006A077B0738F42481838B948BA58BB68B69
:1015200020682483D80114968C9183FD9FC081E0AC
:1015300090E00F900F900F900F900F90DF91CF9150
:101540001F910F91FF90EF90DF90CF90BF90AF90E1
:101550009F900895F8014389548965897689828529
:101560009385A485B585481759076A077B0709F451
:1015700052CFC8010E94BC0781114DCF81E090E09D
:10158000D80113969C938E93129749C0D801169652
:101590004D915D916D917C911997A114B10409F061
:1015A00071C0411551056105710589F557968D91F9
:1015B0009D910D90BC91A02D0097A105B10509F05A
:1015C0004FC0C8010E9450088823C1F2D8015B9621
:1015D000ED91FC915C971696CD90DD90ED90FC908E
:1015E0001997B2E0CB1AD108E108F108858504C04B
:1015F000CC0CDD1CEE1CFF1C8A95D2F74685578566
:1016000060897189C40ED51EE61EF71E48CF9E0163
:101610002F5F3F4FCF010E943B07811103C090E035
:1016200080E087CF89819A81AB81BC81F801238DCD
:10163000348DF901278948EF5FEF60E070E02031D9
:1016400021F048EF5FEF6FEF7FE084179507A60763
:10165000B70730F0C8010E9450088111F8CE8ECF34
:10166000F80186839783A087B187F1CEF801858141
:10167000882309F483CF61E0C8010E9450098111D9
:1016800056CF7CCF6A017B01B2E0CB1AD108E108CA
:10169000F108858504C0CC0CDD1CEE1CFF1C8A956E
:1016A000D2F74685578560897189C40ED51EE61E1E
:1016B000F71E41E0C701B6010E94CB05811111CF91
:1016C0005DCF2091A901260F3327331F2132310529
:1016D000ECF420914204FC0190E080E0243069F0B9
:1016E00082E00895A091A9012191AC0147575E4F76
:1016F000A40FB52FB11D2C930196861798F38091F6
:10170000A901680F6093A90180E0089581E0089520
:101710001092420481E08093410410921C0461E025
:1017200082E10E941B0261E083E10E941B02E9EB5F
:10173000F0E080818E7F808380818D7F808388E44C
:101740008093B80085E48093BC000895CF93DF9325
:1017500091E0909388018823B9F0C091B800D091AE
:10176000BA008091BC008A7B8093BC0060E082E17B
:101770000E941B0260E083E10E941B020E94880B12
:10178000D093BA00C093B800DF91CF910895CF9263
:10179000DF92EF92FF920F931F93CF93DF93D0913D
:1017A0006B0481E0D13208F09CC0C0916A040E94B1
:1017B0007A026B017C018091420481116CC082E04D
:1017C0008093420481E0809341048FEF8093400432
:1017D00010923F04D0933E04AAE4B4E0EEE1F4E0BA
:1017E00080E0D8138DC010921D0480911D04CC0F91
:1017F000C82BC0931D0480911C04813009F084C063
:1018000010921C040E947A026B017C0180911D04DD
:101810008093BB008091440490914504A0914604BC
:10182000B0914704892B8A2B8B2BA1F00E947A025E
:1018300000914404109145042091460430914704DE
:101840006C197D098E099F090617170728073907A4
:1018500008F442C08091BC0083FDD8CF85EC809312
:10186000BC000E947A026B017C01809142048230AC
:1018700009F44CC0809140048F3F09F469C0809105
:101880004004803209F466C080914004803309F43A
:1018900063C084E026C08091440490914504A091E7
:1018A0004604B0914704892B8A2B8B2B09F483CFF4
:1018B0000E947A020091440410914504209146044C
:1018C000309147046C197D098E099F090617170787
:1018D0002807390708F06FCF809143040E94A60BB8
:1018E00085E01092490410926B0410924804DF9135
:1018F000CF911F910F91FF90EF90DF90CF900895BF
:101900009D9191938F5F6DCF85EEA9CF8091440417
:1019100090914504A0914604B0914704892B8A2BED
:101920008B2B09F4A2CF0E947A02009144041091FB
:10193000450420914604309147046C197D098E09B5
:101940009F09061717072807390708F08ECFC4CF5D
:1019500080E0C7CF82E0C5CF83E0C3CF0895E09198
:101960001B0480911A04E81730F4F0E0E650FC4FB5
:10197000808190E008958FEF9FEF089580911A0481
:1019800090911B04891B990B0895CF92DF92EF92DF
:10199000FF920F931F93CF93DF937C01CB018A01BA
:1019A00020914804222389F0EB016B01C40ED51E5F
:1019B000CC15DD0569F06991D701ED91FC9101909D
:1019C000F081E02DC7010995F3CF642F0E94610BD0
:1019D000C801DF91CF911F910F91FF90EF90DF90A1
:1019E000CF900895CF93DF931F92CDB7DEB7698371
:1019F000209148042223F9F020916B04203258F002
:101A000021E030E0FC013383228390E080E00F90FE
:101A1000DF91CF91089580914904E82FF0E0E65BD3
:101A2000FB4F998190838F5F8093490480936B046F
:101A300081E090E0ECCF61E0CE0101960E94610B65
:101A4000F7CF682F84E595E00C94F20CCF93C82F64
:101A500088E60E948E0083E090E00E94210D8C2F8A
:101A60006AE00E947D218295807F682F690F84E55E
:101A700095E00E94F20CCF910C94C70B90E080E0AF
:101A80000895CF9380910601873021F08F3F61F157
:101A9000CF910895ECE7F0E0C491C7FDF9CF61E084
:101AA00087E00E944902CC2309F48CC0C23009F0BF
:101AB000A1C08091B100887F82608093B10086E4EC
:101AC0008093B30088EA90E0A0E0B0E08093E00368
:101AD0009093E103A093E203B093E303809170003D
:101AE000826080937000D4CF87E080930601ECE79A
:101AF000F0E0C491CF3F61F2C13021F150F0C2302B
:101B000009F43EC0C7FDC4CF61E087E00E944902EE
:101B1000CDCF14BC15BC84B5826084BD85B5816011
:101B200085BDEEE8F0E0E491F0E0EE0FFF1FEE5827
:101B3000FF4F85919491E2EAF0E0E491E0937F0118
:101B4000C0E0ADCF109280001092810080918100A2
:101B50008860809381008091810081608093810002
:101B6000EEE8F0E0E491F0E0EE0FFF1FEE58FF4FDB
:101B700085919491E2EAF0E0E491E0937E018FCFC9
:101B80001092B0001092B1008091B00082608093FA
:101B9000B0008091B10081608093B100EEE8F0E088
:101BA000E491F0E0EE0FFF1FEE58FF4F8591949106
:101BB0009093DE038093DD03E2EAF0E0E491E093AA
:101BC000DF036DCF85B5887F826085BD86E487BDE4
:101BD00088EA90E0A0E0B0E08093840190938501D2
:101BE000A0938601B093870180916E0082608093FC
:101BF0006E004ECFC130F1F480918100887F81600A
:101C0000809381008AE392E090938900809388001A
:101C100088EA90E0A0E0B0E0809380019093810199
:101C2000A0938201B093830180916F0082608093C2
:101C30006F002ECFC23021F0C1112ACF8AE3C7CF67
:101C40008AE33ECFCF93DF93EC0180E50E948E00C4
:101C50008D2F90E00E94210DCE019927DF91CF9129
:101C60000C94210DCF93C62F0E94220E6C2F84E579
:101C700095E00E94F20C0E94C70B65E070E080E0E6
:101C800090E0CF910C949F02FF920F931F93CF93FC
:101C9000DF93C82FF62E142FD22F61E08BE00E9425
:101CA0001B026F2D70E081E090E00E94320E612FE8
:101CB00070E082E090E00E94320E6D2F70E083E0D1
:101CC00090E00E94320E602F70E084E090E00E946D
:101CD000320E6C2F70E090E080E00E94320E60E0E7
:101CE0008BE0DF91CF911F910F91FF900C941B021D
:101CF0008F929F92AF92BF92CF92DF92EF92FF921C
:101D00000F931F93CF93DF937C01D62F0E947A020B
:101D10004B015C0180914204811167C0CD2F81E0AD
:101D200080934204809341049FEF9093400410926B
:101D30003F049D0F90933E0480931D0480911D04E9
:101D4000EE0CFF1C8E2980931D0480911C048130B1
:101D500009F083C010921C040E947A026B017C017E
:101D600080911D048093BB008091440490914504B0
:101D7000A0914604B0914704892B8A2B8B2BA1F0AC
:101D80000E947A028090440490904504A0904604FA
:101D9000B09047046C197D098E099F098616970635
:101DA000A806B90608F442C08091BC0083FDD8CFD4
:101DB00085EC8093BC000E947A026B017C018091CB
:101DC0004204813009F44BC080913F048D1710F418
:101DD000C0913F04EEE1F4E0AAEFB3E080E08C179D
:101DE00051F191919D938F5FFACF8091440490912E
:101DF0004504A0914604B0914704892B8A2B8B2B74
:101E000009F488CF0E947A0200914404109145049D
:101E10002091460430914704681979098A099B0981
:101E2000061717072807390708F074CF8091430475
:101E30000E94A60BC0E010921B04C0931A048C2FC2
:101E4000DF91CF911F910F91FF90EF90DF90CF9096
:101E5000BF90AF909F908F90089585EEAACF80910C
:101E6000440490914504A0914604B0914704892B05
:101E70008A2B8B2B09F4A3CF0E947A028090440412
:101E800090904504A0904604B09047046C197D09D9
:101E90008E099F0986169706A806B90608F08FCF07
:101EA000C5CFCF930E94220E0E94C70B61E070E065
:101EB00080E590E00E94780E90911A0480911B04B6
:101EC0009817F1F30E94AB00C82F0E94C70B8C2F0C
:101ED000CF91089520916A0530916B05809164053A
:101EE0009091650528173907F1F480916605909166
:101EF000670560916005709161050097D9F06115E3
:101F00007105A9F4232BC9F0FC01808190E008C081
:101F1000232B99F0FB01808190E0919581959109A7
:101F200021E0892B09F020E081E0822708950E94BA
:101F3000A923F6CF6115710559F721E0F5CFCF93AD
:101F4000DF93EC018CE694E00E941F01892B29F0BD
:101F50008CE694E00E94FD00F5CF209769F0FE0129
:101F600001900020E9F73197AF014C1B5D0BBE01DA
:101F70008CE694E00E94C1006FEF8CE694E00E9432
:101F800061016FEF8CE694E00E9461016FEF8CE6D7
:101F900094E0DF91CF910C946101CF93DF93EC013A
:101FA00088819981009711F00E945A221982188223
:101FB0001D821C821B821A82DF91CF910895FC0141
:101FC00080819181009711F00C945A2208950F930B
:101FD0001F93CF93DF93EC0188819981009759F08B
:101FE0002A813B812617370730F081E0DF91CF91BE
:101FF0001F910F9108958B016F5F7F4F0E94E32225
:10200000009759F0998388831B830A832C813D8133
:10201000232B59F7FC011082E8CF80E0E7CFEF9245
:10202000FF920F931F93CF93DF936115710541F4D6
:1020300080E0DF91CF911F910F91FF90EF90089575
:1020400041155105B1F07B01EC010C811D81040F9C
:10205000151FB8010E94E70F882351F328813981A9
:102060008C819D81B701820F931F0E94B2231D8333
:102070000C8381E0DECFEF92FF920F931F93CF93FB
:10208000DF9300D000D0CDB7DEB77C01862F4AE0C9
:102090008E010F5F1F4FB80190E00E94901FF80162
:1020A00001900020E9F73197AF01401B510BB801B7
:1020B000C7010E940F10811103C0C7010E94CD0FFC
:1020C000C7010F900F900F900F90DF91CF911F914C
:1020D0000F91FF90EF900895CF93DF93EC01FB01F8
:1020E00044815581608171810E940F10811103C06C
:1020F000CE010E94CD0FCE01DF91CF9108956115E1
:10210000710551F0FB0101900020E9F73197AF0113
:10211000461B570B0C940F1080E00895EF92FF922E
:102120000F931F93CF93DF93EC017B018A01BA01D8
:102130000E94E70F81110BC0CE010E94CD0FCE018E
:10214000DF91CF911F910F91FF90EF9008951D8324
:102150000C83B701888199810E94B223F0CFEF925E
:10216000FF920F931F93CF93DF93CDB7DEB72997DD
:102170000FB6F894DEBF0FBECDBF8C01862FF801DD
:102180001182108213821282158214824AE09E010B
:102190002F5F3F4F7901B90190E00E949B1FF7012B
:1021A00001900020E9F73197AF014E195F09B7019F
:1021B000C8010E948E1029960FB6F894DEBF0FBE9C
:1021C000CDBFDF91CF911F910F91FF90EF900895B8
:1021D000CF93DF93EC01FB018617970749F06081ED
:1021E00071816115710541F0448155810E948E1005
:1021F000CE01DF91CF9108950E94CD0FF9CFFC0160
:102200001182108213821282158214820C94E810BB
:10221000FC01118210821382128215821482FB014A
:1022200001900020E9F73197AF01461B570B0C9442
:102230008E108F929F92AF92BF92DF92EF92FF9299
:102240000F931F93CF93DF93CDB7DEB7A8970FB649
:10225000F894DEBF0FBECDBF7C014A018E010F5F37
:102260001F4F8AE0F80111928A95E9F762E571E063
:10227000CE0183960E9408114AE0B801C4010E9471
:102280009B1F6EE371E0CE014D960E940811F7018D
:10229000D18060E471E0CE0147960E940811F701F9
:1022A000F08065E471E0CE010B960E940811BE013A
:1022B000655F7F4FCE0141960E94FF106F2DCE01CA
:1022C00041960E943B10BE01695E7F4F0E946C10D8
:1022D0006D2D0E943B10BE01635E7F4F0E946C100B
:1022E000FC014481558160817181CE0183960E94F9
:1022F0000F10CE0141960E94DF0FCE010B960E9477
:10230000DF0FCE0147960E94DF0FCE014D960E944F
:10231000DF0F68E471E0CE0183960E947F10B80160
:10232000CE0183960E947F108BA19CA10E949F0FDB
:102330000E94EE03182FCE0183960E94DF0F812F9B
:10234000A8960FB6F894DEBF0FBECDBFDF91CF9138
:102350001F910F91FF90EF90DF90BF90AF909F90F3
:102360008F900895CF93DF93CDB7DEB72C970FB63C
:10237000F894DEBF0FBECDBF88E0898381E08A83F9
:1023800082E591E09C838B831E821D821A861986CA
:102390001C861B8618861F824FEF5FEFBA01CE01A5
:1023A00001960E9419112C960FB6F894DEBF0FBE4D
:1023B000CDBFDF91CF910895CF93DF93CDB7DEB737
:1023C0002C970FB6F894DEBF0FBECDBF0E94D1028E
:1023D0006091ED037091EE038091EF039091F00313
:1023E0000E944E21AB01BC0188E0898382E18A838F
:1023F00082E591E09C838B831E821D821A8619865A
:102400001C861B8618861F82CE0101960E94191118
:102410002C960FB6F894DEBF0FBECDBFDF91CF91E3
:102420000895CF93DF93CDB7DEB72C970FB6F8940E
:10243000DEBF0FBECDBF0E94D1026091F10370914B
:10244000F2038091F3039091F4030E944E21AB01BB
:10245000BC0188E0898380E18A8382E591E09C83E6
:102460008B831E821D821A8619861C861B861886FF
:102470001F82CE0101960E9419112C960FB6F89476
:10248000DEBF0FBECDBFDF91CF9108951F93CF93D5
:10249000DF93CDB7DEB72C970FB6F894DEBF0FBE33
:1024A000CDBF88E0898381E18A8382E591E09C83C6
:1024B0008B831E821D821A8619861C861B861886AF
:1024C0001F8288E60E948E0081E190E00E94210D2B
:1024D0000E94C70B62E070E088E690E00E94780EF0
:1024E00090911A0480911B04981759F10E94AB0037
:1024F000182F0E94AB0060E0712F807C9927682B19
:10250000792B072E000C880B990B0E94C71F20E027
:1025100030E040E85BE30E9402200E944721AB01CB
:10252000770F660B770BCE0101960E9419112C963E
:102530000FB6F894DEBF0FBECDBFDF91CF911F91D4
:10254000089560E07CE38CE196ECE7CFFF920F9377
:102550001F93CF93DF93CDB7DEB7A4970FB6F89450
:10256000DEBF0FBECDBF28E029838DE08A8382E5E0
:1025700091E09C838B831E821D821A8619861C869D
:102580001B8618861F822D873EE03E87988B8F879B
:102590001A8A198A1E8A1D8A188E1F8A1C8A1B8A0B
:1025A000298F2FE02A8F9C8F8B8F1E8E1D8E1AA253
:1025B00019A21CA21BA218A21F8E88E60E948E00E0
:1025C00082E090E00E94210D0E94C70B61E070E064
:1025D00088E690E00E94780E0E94AB00982F9295BA
:1025E0009F70282F2F70F22E86FF5CC091708AE0BA
:1025F000989FF00C112488E60E948E0081E090E004
:102600000E94210D0E94C70B61E070E088E690E017
:102610000E94780E0E94AB00982F92959F701AE04E
:102620008F70082F919F000D112488E60E948E0064
:1026300090E080E00E94210D0E94C70B61E070E0F5
:1026400088E690E00E94780E0E94AB00982F929549
:102650009F708F70919F800D1124182F4F2D50E087
:1026600070E060E0CE0101960E941911402F50E009
:1026700070E060E0CE010D960E941911412F50E0EC
:1026800070E060E0CE0149960E941911A4960FB641
:10269000F894DEBF0FBECDBFDF91CF911F910F9198
:1026A000FF90089593702AE0929FF00C1124A3CF1D
:1026B000BF92CF92DF92EF92FF920F931F93CF932F
:1026C000DF93CDB7DEB7E0970FB6F894DEBF0FBE4D
:1026D000CDBF88E089838A8322E531E03C832B8368
:1026E0001E821D821A8619861C861B8618861F82EA
:1026F0008D8799E09E87388B2F871A8A198A1E8AC0
:102700001D8A188E1F8A1C8A1B8A898F1AE01A8FCD
:102710003C8F2B8F1E8E1D8E1AA219A21CA21BA2EB
:1027200018A21F8E8DA38CE08EA338A72FA31AA604
:1027300019A61EA61DA618AA1FA61CA61BA688E6DB
:102740000E948E0084E090E00E94210D0E94C70B41
:1027500061E070E088E690E00E94780E0E94AB0095
:10276000982F92959F708F70D82E919FD00C112426
:1027700088E60E948E0085E090E00E94210D0E9474
:10278000C70B61E070E088E690E00E94780E0E943E
:10279000AB00982F929597708F70B82E919FB00CC8
:1027A000112488E60E948E0086E090E00E94210DB0
:1027B0000E94C70B61E070E088E690E00E94780E0E
:1027C0000E94AB00982F92959F708F70919F800D03
:1027D0001124E82EF12C00910001109101010E0D41
:1027E0001F1D82E0CB2C8B1528F0FCE0CF2ECB0CEC
:1027F000015011094D2D50E070E060E0CE010196CE
:102800000E9419114B2D50E070E060E0CE010D9652
:102810000E94191140910001509101014E0D5F1D60
:10282000052E000C660B770BCE0149960E941911FC
:102830002C2D30E0A9014F5F5F4FCA01880F991F0F
:10284000840F951F65E070E00E949D21220F331FC9
:102850002D0D311D260F371F200F311FB80117FF17
:1028600002C06D5F7F4F7595679575956795260FCB
:10287000371FC8016CE97FEF0E949D21260F371F8B
:10288000C80160E971E00E949D21C901860F971F70
:10289000029667E070E00E948921AC0170E060E080
:1028A000CE0185960E941911E0960FB6F894DEBF0E
:1028B0000FBECDBFDF91CF911F910F91FF90EF9091
:1028C000DF90CF90BF900895CF93DF93CDB7DEB761
:1028D0002C970FB6F894DEBF0FBECDBF80E4809377
:1028E0007C0080917A00806480937A0080917A00E5
:1028F00086FDFCCF80917800A091790098E09983C3
:1029000098E19A8322E531E03C832B831E821D826D
:102910001A8619861C861B8618861F82BA2FA82F36
:1029200028E730E00E94B1212FEF33E040E050E093
:102930000E94C02088E790E0AC01421B530B052E9B
:10294000000C660B770BCE0101960E9419112C9694
:102950000FB6F894DEBF0FBECDBFDF91CF910895C3
:10296000CF93DF93CDB7DEB72C970FB6F894DEBFC9
:102970000FBECDBF98E0998393E09A8322E531E0C2
:102980003C832B831E821D821A8619861C861B8619
:1029900018861F82482F50E070E060E0CE0101965B
:1029A0000E9419112C960FB6F894DEBF0FBECDBF52
:1029B000DF91CF910895DF92EF92FF920F931F93D3
:1029C000CF93DF93CDB7DEB76E970FB6F894DEBF27
:1029D0000FBECDBF8C017B016EE471E0CE01499644
:1029E0000E9408116EE371E0CE0143960E94081127
:1029F000F801D18060E471E0CE010D960E940811CB
:102A0000F801108165E471E0CE0101960E94081181
:102A1000BE016F5F7F4FCE0107960E94FF10612FAE
:102A2000CE0107960E943B10BE01635F7F4F0E945C
:102A30006C106D2D0E943B10BE016D5E7F4F0E9499
:102A40006C10FC014481558160817181CE014996F1
:102A50000E940F10CE0107960E94DF0FCE01019653
:102A60000E94DF0FCE010D960E94DF0FCE0143962C
:102A70000E94DF0F63E571E0CE0149960E947F104E
:102A8000898D9A8D0E949F0FC7010E941F04182FE5
:102A9000CE0149960E94DF0F612F70E090E080E048
:102AA0006E960FB6F894DEBF0FBECDBFDF91CF910B
:102AB0001F910F91FF90EF90DF900895EF92FF929A
:102AC0000F931F93CF93DF9300D000D000D0CDB7EA
:102AD000DEB77C018B016EE471E0CE0101960E94AD
:102AE0000811F70162817381CE0101960E947F1067
:102AF00044E050E063E571E0CE0101960E940F10C2
:102B000089819A810E949F0FC8010E941F04182F7B
:102B1000CE0101960E94DF0F812F26960FB6F89402
:102B2000DEBF0FBECDBFDF91CF911F910F91FF9000
:102B3000EF900895CF92DF92EF92FF920F931F9341
:102B4000CF93DF93CDB7DEB7A8970FB6F894DEBF6B
:102B50000FBECDBF6C017B018A018FEF9FEFDC01BF
:102B60008DA39EA3AFA3B8A784E089839BE09A833B
:102B700028E531E03C832B831E821D821A8619864C
:102B80001C861B8618861F828D879CE09E872CE5FD
:102B900031E0388B2F871A8A198A1E8A1D8A188E6F
:102BA0001F8A1C8A1B8A898F8DE08A8F80E691E0BC
:102BB0009C8F8B8F1E8E1D8E1AA219A21CA21BA287
:102BC00018A21F8EBE016B5D7F4FCE0101960E9441
:102BD0005E158DA1F6018083BE016B5D7F4FCE0136
:102BE0000D960E945E158DA1F7018083BE016B5D7D
:102BF0007F4FCE0149960E945E158DA19EA1AFA187
:102C0000B8A58C339105A105B10588F4F80180833E
:102C1000A8960FB6F894DEBF0FBECDBFDF91CF915F
:102C20001F910F91FF90EF90DF90CF9008952CE6C9
:102C300037E0803DF7E09F07A105B10510F020EDDA
:102C400037E0309301012093000120910001821BA5
:102C5000DDCF85ED8093BC008091440490914504C4
:102C6000A0914604B09147040796A11DB11D23E031
:102C7000B695A795979587952A95D1F72091BC0091
:102C800024FD03C0109242040895409144045091E1
:102C900045046091460470914704452B462B472B11
:102CA00069F30097A105B10541F025E32A95F1F7F5
:102CB00000000197A109B109E1CF809143040C9470
:102CC000A60B1F920F920FB60F9211242F933F93D2
:102CD0004F935F936F937F938F939F93AF93BF9324
:102CE000EF93FF938091E0039091E103A091E203C1
:102CF000B091E303892B8A2B8B2BD1F19091DF03C9
:102D0000E091DD03F091DE0380818927808380914B
:102D1000E0039091E103A091E203B091E303181660
:102D200019061A061B069CF48091E0039091E103BA
:102D3000A091E203B091E3030197A109B109809347
:102D4000E0039093E103A093E203B093E303FF91C8
:102D5000EF91BF91AF919F918F917F916F915F9113
:102D60004F913F912F910F900FBE0F901F9018958C
:102D700080910601ECE7F0E0E4919FEF909306016B
:102D8000E13051F030F0E23069F060E00E941B0267
:102D9000DECF10926E00F9CF90916F009D7F9093DF
:102DA0006F00F3CF909170009D7F9093700091E041
:102DB0009093B0009091B100987F94609093B1008F
:102DC0001092B300E2CF1F920F920FB60F92112410
:102DD0002F933F934F935F936F937F938F939F9323
:102DE000AF93BF93EF93FF938CE694E00E943F0173
:102DF000FF91EF91BF91AF919F918F917F916F91D3
:102E00005F914F913F912F910F900FBE0F901F90A8
:102E100018951F920F920FB60F9211242F938F9334
:102E20009F93EF93FF93E0917C04F0917D04808168
:102E3000E0918204F091830482FD1BC09081809117
:102E400085048F5F8F7320918604821741F0E09193
:102E50008504F0E0E459FB4F958F80938504FF9142
:102E6000EF919F918F912F910F900FBE0F901F9018
:102E700018958081F4CF1F920F920FB60F921124F4
:102E80002F933F938F939F93AF93BF938091D503DD
:102E90009091D603A091D703B091D8033091D40379
:102EA00023E0230F2D3758F50196A11DB11D209366
:102EB000D4038093D5039093D603A093D703B09304
:102EC000D8038091D9039091DA03A091DB03B091EC
:102ED000DC030196A11DB11D8093D9039093DA0301
:102EE000A093DB03B093DC03BF91AF919F918F91CF
:102EF0003F912F910F900FBE0F901F90189526E8CD
:102F0000230F0296A11DB11DD2CF1F920F920FB6B3
:102F10000F9211240F900FBE0F901F9018951F92C3
:102F20000F920FB60F9211242F933F934F935F93FD
:102F30006F937F938F939F93AF93BF93EF93FF9381
:102F40008091B900887F803609F44AC0F0F5883254
:102F500009F4A7C018F5803109F49BC0B8F48823A0
:102F600009F4F9C0883009F494C0FF91EF91BF9142
:102F7000AF919F918F917F916F915F914F913F9111
:102F80002F910F900FBE0F901F901895883109F464
:102F900088C0803251F78093400414C0803409F413
:102FA0009DC040F48033B9F38833F9F68093400430
:102FB00085ECB0C0803509F485C0883509F496C029
:102FC000883499F60E942916D0CF883909F48CC02C
:102FD00038F5883729F050F4883611F0803729F613
:102FE00083E0809342041092CB0157C0883809F4E3
:102FF0007BC0803919F0803809F0B7CF8091CB01C0
:10300000803208F071C0E091CB0181E08E0F809397
:10301000CB018091BB00F0E0E555FE4F80833DC0C1
:10302000803B39F0E0F4803A09F479C0883A09F03D
:103030009CCF84E0809342041092AA011092A901CF
:10304000E091E603F091E70309958091A9018111D0
:103050000FC081E08093A9011092890109C0803CD2
:1030600009F4A6CF883C09F4A3CF883B09F07DCFB3
:10307000E091AA0181E08E0F8093AA01F0E0E7576A
:10308000FE4F80818093BB009091AA018091A9019D
:1030900029C080911D048093BB0085EC8093BC0007
:1030A00064CF90913F0480913E04981758F5E091C9
:1030B0003F0481E08E0F80933F04F0E0E25EFB4F1F
:1030C0008081E9CFE0913F0481E08E0F80933F043F
:1030D0008091BB00F0E0E25EFB4F808390913F0463
:1030E00080913E049817C8F285E8D8CFE0913F045C
:1030F00081E08E0F80933F048091BB00F0E0E25EA0
:10310000FB4F80838091410481115CCF81E08093EB
:103110001C0484EA8093BC001092420426CF85EC04
:103120008093BC00109242048091CB01803230F435
:10313000E091CB01F0E0E555FE4F10826091CB01AC
:1031400070E0E091E403F091E5038BEA91E00995EA
:103150001092CB010ACF1092400434CFECE6F4E099
:103160001382128288EE93E0A0E0B0E0848395831E
:10317000A683B78322E131E03183208325EC30E060
:103180003587248724EC30E03787268720EC30E031
:10319000318B208B21EC30E0338B228B22EC30E022
:1031A000358B248B26EC30E0378B268B118E128EDC
:1031B000138E148EE9E0F5E020E520831182EBE028
:1031C000F5E0158216821186138642E050E060E039
:1031D00070E0448755876687778713A215A614A6E3
:1031E00024E231E033A722A717A6E4E5F5E0138235
:1031F000128284839583A683B78380E391E09183D1
:10320000808362E571E086E695E00E94081162E540
:1032100071E080E695E00C940811CF93DF93CDB771
:10322000DEB7CC57D1090FB6F894DEBF0FBECDBFC5
:10323000789484B5826084BD84B5816084BD85B591
:10324000826085BD85B5816085BD80916E0081609D
:1032500080936E0010928100809181008260809343
:103260008100809181008160809381008091800045
:103270008160809380008091B10084608093B10070
:103280008091B00081608093B00080917A0084606A
:1032900080937A0080917A00826080937A00809196
:1032A0007A00816080937A0080917A0080688093B0
:1032B0007A001092C10068EB7BE080E090E00E9411
:1032C0009F0261E08CE00E94490261E08BE00E9475
:1032D000490260E08CE00E941B0260E08BE00E94EB
:1032E0001B026AE070E080E090E00E949F02109272
:1032F0001B0410921A041092490410926B040E944D
:10330000880B8EEB90E09093E7038093E6038FEBBE
:1033100090E09093E5038093E40388E60E948E009A
:1033200082E090E00E94210D0E94C70B61E070E0F6
:1033300088E690E00E94780E0E94AB00182F88E685
:103340000E948E0082E090E00E94210D612F6F7B31
:1033500084E595E00E94F20C0E94C70B80E00E9479
:10336000260D6AE070E080E090E00E949F021092DB
:103370001B0410921A041092490410926B040E94CC
:10338000880B6AE070E080E090E00E949F0261E0BC
:1033900087E00E9449026AE070E080E090E00E94CD
:1033A0009F0260E08EE00E9449026AE070E080E0E7
:1033B00090E00E949F0202E06FECF62E76E0E72E8E
:1033C000E0917C04F0917D040083E0917804F09119
:1033D00079041082E0917A04F0917B04F0821092DB
:1033E0008404E0918004F0918104E082E0917E0405
:1033F000F0917F04808180618083E0917E04F09170
:103400007F04808188608083E0917E04F0917F0456
:10341000808180688083E0917E04F0917F048081C8
:103420008F7D808382E591E00E949F0F84E691E08A
:103430000E949F0F0E94EE03182F8CE691E00E94DD
:103440009F0F0E94EE031111182F64EF71E080E0CE
:1034500090E00E949F021093E80364E670E080E031
:1034600090E00E949F02112309F443C161E08BE0C8
:103470000E941B0290E080E00E94510F182F81E013
:1034800090E00E94510FD82E82E090E00E94510FF0
:10349000E82E83E090E00E94510FF82E84E090E047
:1034A0000E94510FB82E60E08BE00E941B0228E0C2
:1034B000C22EA496CFAEA49789E1A5968FAFA5970B
:1034C00032E5832E31E0932EA7969FAE8EAEA7975E
:1034D000A9961FAE1EAEA997AD961FAE1EAEAD97B4
:1034E000AF961FAE1EAEAF97AB961FAE1EAEAB979C
:1034F000412F50E070E060E0CE018D599F4F0E9457
:1035000019116896CFAE689784E169968FAF699775
:103510006B969FAE8EAE6B976D961FAE1EAE6D977F
:10352000A1961FAE1EAEA197A3961FAE1EAEA39787
:103530006F961FAE1EAE6F974D2D50E070E060E0AD
:10354000CE01895A9F4F0E9419112C96CFAE2C970D
:1035500085E12D968FAF2D972F969FAE8EAE2F972C
:1035600061961FAE1EAE619765961FAE1EAE659743
:1035700067961FAE1EAE679763961FAE1EAE63972B
:103580004E2D50E070E060E0CE01855B9F4F0E94C1
:103590001911CFAE86E121968FAF219723969FAE6A
:1035A0008EAE239725961FAE1EAE259729961FAE89
:1035B0001EAE29978E01075B1F4FD8011D921C92EA
:1035C0001E01B5E42B0E311CF101118210824F2D2A
:1035D00050E070E060E0CE01CF960E941911CBAAB6
:1035E00087E18CAB9EAA8DAA18AE1FAA1CAE1BAE9B
:1035F0001EAE1DAE1AAE19AE4B2D50E070E060E06D
:10360000CE01C3960E941911C98283E18A839C82EC
:103610008B821E821D821A8619861C861B8618863E
:103620001F82D694D694D694F0E4DF9EC001112474
:103630004E2D46954695840F911D45E0880F991FA4
:103640004A95E1F74F2D469546954695480F592FD7
:10365000511D052E000C660B770BCE0101960E94C2
:1036600019110E9458130E94A6120E9446120E942D
:1036700011120E94DC110E94641444244A94542CB8
:10368000320192E5C92E91E0D92E9E012F5F3F4F66
:10369000790181E090E0A0E0B0E08BAB9CABADABFA
:1036A000BEAB08E009838DE18A83DC82CB821E8277
:1036B0001D821A8619861C861B8618861F82BE01EB
:1036C0006D5C7F4FC7010E94DB148BA9813051F5DF
:1036D00068EE73E080E090E00E949F0280E090E05E
:1036E000892BB9F20E942B01882359F20E94000015
:1036F000C8CF0E94410D64EF71E080E090E00E942D
:103700009F020E94410D64EF71E080E090E00E9412
:103710009F020E94410D68E873E180E090E00E9402
:103720009F024ECE1BAA1CAA1DAA1EAA098381E0D5
:103730008A83DC82CB821E821D821A8619861C86B1
:103740001B8618861F82BE016D5C7F4FC7010E94D9
:10375000DB141BA96B964CAE5DAE6EAE7FAE6B9765
:103760002C960FAF2C9784E12D968FAF2D972F9627
:10377000DFAECEAE2F9761961FAE1EAE61976596F7
:103780001FAE1EAE659767961FAE1EAE6797639617
:103790001FAE1EAE63970FAF85E121968FAF2197C5
:1037A0002396DFAECEAE239725961FAE1EAE25978D
:1037B00029961FAE1EAE29972B961FAE1EAE2B97D5
:1037C000D1011D921C920BAB86E18CABDEAACDAA77
:1037D00018AE1FAA1CAE1BAE1EAE1DAE1AAE19AEA1
:1037E000098387E18A83DC82CB821E821D821A864E
:1037F00019861C861B8618861F82BE01695A7F4F58
:10380000CE01855B9F4F0E94DB1468968FAD689751
:103810008093EC03BE01695A7F4FCE01CF960E9480
:10382000DB1468968FAD68978093EB03BE01695AED
:103830007F4FCE01C3960E94DB1468968FAD6897C8
:103840008093EA03BE01695A7F4FC7010E94DB14CF
:1038500068966FAD68976093E903CE01C3960E94A6
:10386000AF106091EA03CE01CF960E94AF10609135
:10387000EB03CE01855B9F4F0E94AF106091EC037C
:10388000CE01895A9F4F0E94AF10612FCE018159FE
:103890009F4F0E94AF10BE0161597F4FCE018D59DD
:1038A0009F4F0E94FF10BE01695A7F4FCE018D5974
:1038B0009F4F0E946C10BE01655B7F4F0E946C1091
:1038C000BE01615C7F4F0E946C10BE016D5C7F4F3A
:1038D0000E946C10BC01C7010E94FF108091660518
:1038E00090916705009709F45FC169817A8161153C
:1038F000710509F457C140916805509169052D8102
:103900003E814217530708F44DC10E94B2238D81B6
:103910009E8190936B0580936A051E821D82C7016C
:103920000E94DF0FCE018D599F4F0E94DF0FCE0105
:1039300081599F4F0E94DF0FCE01895A9F4F0E94ED
:10394000DF0FCE01855B9F4F0E94DF0FCE01CF9628
:103950000E94DF0FCE01C3960E94DF0F123009F4E0
:10396000E1C108F038C1112309F43DC1113009F457
:1039700060C10E946A0F1D3309F0BBC2882309F49D
:1039800046C182E3F70111928A95E9F7E9964CAEB8
:103990005DAE6EAE7FAEE99788E08BAB8BE18CAB12
:1039A000DEAACDAA18AE1FAA1CAE1BAE1EAE1DAE5F
:1039B0001AAE19AEBE016B587F4FCE01C3960E945E
:1039C000DB14E696BFACE697E7961FADE7971A8241
:1039D000198262E571E0CE0181599F4F0E94081162
:1039E0006EE471E0CE0181599F4F0E947F106EE31B
:1039F00071E0CE01CF960E94081160E471E0CE0123
:103A0000855B9F4F0E94081165E471E0CE018D59DE
:103A10009F4F0E940811BE016D597F4FCE01895AF8
:103A20009F4F0E94FF1068E0CE01895A9F4F0E946D
:103A30003B10BE01655B7F4F0E946C106AE10E94E3
:103A40003B10BE01615C7F4F0E946C10DC0114963C
:103A50004D915C9115976D917C91CE0181599F4F4D
:103A60000E940F10CE01895A9F4F0E94DF0FCE0196
:103A70008D599F4F0E94DF0FCE01855B9F4F0E94A3
:103A8000DF0FCE01CF960E94DF0F68E771E0CE0115
:103A900081599F4F0E947F10E1968EAD9FADE197B7
:103AA0000E949F0F8B2C912E62E571E0CE01CF9684
:103AB0000E94081181149104F1F10E949503ED9682
:103AC0006CAF7DAF8EAF9FAFED9710E000E00E942E
:103AD0009503ED962CAD3DAD4EAD5FADED97621B00
:103AE000730B840B950B6536710581059105A0F468
:103AF0008CE694E00E941F01892B09F4F6C18CE644
:103B000094E00E94FD00002309F4E9C18F3F09F011
:103B1000D6C11F5F133060F325964EAD5FAD25977C
:103B20008416950608F4A40121966EAD7FAD219709
:103B3000C7010E94B923CE01CF960E94DF0FCE01AC
:103B400081599F4F0E94DF0F0091E9032091EA0302
:103B50004091EB036091EC038DE30E94440E6B2DCA
:103B600070E080E190E00E94320E01E110E0912CC3
:103B7000F701E90DF11D6081062E000C770BC801DD
:103B80000E94320E0F5F1F4F9394B91488F766E6B8
:103B900075E080E695E00E94E81061E08CE00E940C
:103BA0001B0235C00E945A2289819A819093670531
:103BB000809366058B819C8190936905809368054D
:103BC0008D819E8190936B0580936A051A8219827C
:103BD0001C821B82A2CE143009F449C108F444C1EE
:103BE0001F3F09F0C6CE0E946A0F882381F060E073
:103BF0008CE00E941B0262E370E080E090E00E9493
:103C00009F0266E675E080E695E00E94E8108091EC
:103C1000070181110E94410D0E9458130E94A612B3
:103C20000E9446120E9411120E94DC110E9464142C
:103C300055CD0E94B21182E00E94B014AE01415CE9
:103C40005F4FBE01655B7F4FCE01895A9F4F0E9437
:103C50009A151BAA1CAA1DAA1EAA84E089838AE1C0
:103C60008A8383E791E09C838B831E821D821A8660
:103C700019861C861B8618861F82BE016D5C7F4FCD
:103C8000C7010E945E150BA968968FAC68972C96A9
:103C90009FAC2C97BFAC88E60E948E0084E090E039
:103CA0000E94210D1AE0882D612F0E947D218295AE
:103CB000807F682F690F84E595E00E94F20C0E94D6
:103CC000C70B88E60E948E0085E090E00E94210DDF
:103CD000892D612F0E947D218295807F682F690F39
:103CE00084E595E00E94F20C0E94C70B88E60E94D2
:103CF0008E0086E090E00E94210D8B2D612F0E94A6
:103D00007D218295807F682F690F84E595E00E9470
:103D1000F20C0E94C70B802F0E94260D83E00E94A8
:103D2000B01475CF0E94B21182E00E94B014A701B6
:103D3000BE016D5C7F4FCE01CF960E949A150FADEC
:103D40009BA8B98088E60E948E0082E090E00E94E5
:103D5000210D0E94C70B61E070E088E690E00E94B0
:103D6000780E0E94AB0086FF75C021E00C3008F48D
:103D700020E00C3008F00C50011101C00CE0802F45
:103D80006AE00E947D21182F1295107F190F30E0F4
:103D900085E0220F331F8A95E1F72064122B88E615
:103DA0000E948E0082E090E00E94210D612F84E548
:103DB00095E00E94F20C0E94C70B88E60E948E00DC
:103DC00081E090E00E94210D1AE0892D612F0E9470
:103DD0007D218295807F682F690F84E595E00E94A0
:103DE000F20C0E94C70B88E60E948E0090E080E0F3
:103DF0000E94210D8B2D612F0E947D218295807F55
:103E0000682F690F84E595E00E94F20C0E94C70BB1
:103E100088E60E948E008FE090E00E94210D0E94B3
:103E2000C70B61E070E088E690E00E94780E0E9487
:103E3000AB00182F88E60E948E008FE090E00E9471
:103E4000210D612F6F7784E595E00E94F20C0E94AE
:103E5000C70B64CF802F6AE00E947D21182F129536
:103E6000107F190F1F7B9BCF0E94B211D0CE82E032
:103E70000E94B0141BAA1CAA1DAA1EAA88E089834E
:103E80008CE18A83DC82CB821E821D821A8619868F
:103E90001C861B8618861F82BE016D5C7F4FC70182
:103EA0000E94DB1481E04BA95CA96DA97EA9452B7A
:103EB000462B472B09F480E0809307012FCF2C96E7
:103EC0008FAF2C972D961FAE2D9741E050E0BE018D
:103ED000655B7F4FCE01CF960E940F1009CE01E0A7
:103EE000803709F405CE00E003CE133008F4EFCD9F
:103EF00013CE882309F48BCE0091E9032091EA03C5
:103F00004091EB036091EC03812F0E94440E3FCE61
:103F100080E695E00E94DF0F86E695E00C94DF0FC7
:103F2000BB274A3031F4992322F4BDE29095819564
:103F30009F4F0C949C1FBB27FB015527AA27880F76
:103F4000991FAA1FA41710F0A41B83955051B9F70D
:103F5000A05DAA3308F0A95DA193009779F7B1118C
:103F6000B1931192CB010C94B51FDC01FC01672FBA
:103F700071917723E1F7329704C07C916D93708340
:103F80006291AE17BF07C8F30895E89409C097FB84
:103F90003EF490958095709561957F4F8F4F9F4F20
:103FA0009923A9F0F92F96E9BB279395F695879564
:103FB00077956795B795F111F8CFFAF4BB0F11F427
:103FC00060FF1BC06F5F7F4F8F4F9F4F16C08823CE
:103FD00011F096E911C0772321F09EE8872F762F04
:103FE00005C0662371F096E8862F70E060E02AF045
:103FF0009A95660F771F881FDAF7880F9695879531
:1040000097F908950E9415200C9486200E9478202C
:1040100038F00E947F2020F0952311F00C946F203F
:104020000C94752011240C94BA200E94972070F3F0
:10403000959FC1F3950F50E0551F629FF001729F4D
:10404000BB27F00DB11D639FAA27F00DB11DAA1F5C
:10405000649F6627B00DA11D661F829F2227B00DA9
:10406000A11D621F739FB00DA11D621F839FA00D34
:10407000611D221F749F3327A00D611D231F849F84
:10408000600D211D822F762F6A2F11249F575040DB
:104090009AF0F1F088234AF0EE0FFF1FBB1F661F56
:1040A000771F881F91505040A9F79E3F510580F01F
:1040B0000C946F200C94BA205F3FE4F3983ED4F345
:1040C000869577956795B795F795E7959F5FC1F7C3
:1040D000FE2B880F911D9695879597F9089597F96E
:1040E0009F6780E870E060E008959FEF80EC08959E
:1040F00000240A94161617061806090608950024C7
:104100000A9412161306140605060895092E039440
:10411000000C11F4882352F0BB0F40F4BF2B11F4B4
:1041200060FF04C06F5F7F4F8F4F9F4F089557FD13
:104130009058440F551F59F05F3F71F04795880F15
:1041400097FB991F61F09F3F79F0879508951216AC
:1041500013061406551FF2CF4695F1DF08C0161658
:1041600017061806991FF1CF869571056105089409
:104170000895E894BB2766277727CB0197F9089520
:10418000052E97FB1EF400940E94D72057FD07D000
:104190000E94162107FC03D04EF40C94D7205095B2
:1041A0004095309521953F4F4F4F5F4F0895909523
:1041B0008095709561957F4F8F4F9F4F08952F92F7
:1041C0003F924F925F926F927F928F929F92AF92A7
:1041D000BF92CF92DF92EF92FF920F931F93CF93F4
:1041E000DF93CDB7DEB7CA1BDB0B0FB6F894DEBF8B
:1041F0000FBECDBF09942A88398848885F846E84B1
:104200007D848C849B84AA84B984C884DF80EE80FA
:10421000FD800C811B81AA81B981CE0FD11D0FB603
:10422000F894DEBF0FBECDBFED010895A1E21A2EB6
:10423000AA1BBB1BFD010DC0AA1FBB1FEE1FFF1F4A
:10424000A217B307E407F50720F0A21BB30BE40B9A
:10425000F50B661F771F881F991F1A9469F76095E1
:104260007095809590959B01AC01BD01CF0108959B
:10427000A29FB001B39FC001A39F700D811D1124A7
:10428000911DB29F700D811D1124911D08950E94F2
:104290004E216894B1110C94BA2008950E949F2079
:1042A00088F09F5798F0B92F9927B751B0F0E1F0F7
:1042B000660F771F881F991F1AF0BA95C9F714C0A7
:1042C000B13091F00E94B920B1E008950C94B9206A
:1042D000672F782F8827B85F39F0B93FCCF38695E0
:1042E00077956795B395D9F73EF49095809570953D
:1042F00061957F4F8F4F9F4F0895991B79E004C0C0
:10430000991F961708F0961B881F7A95C9F7809514
:104310000895AA1BBB1B51E107C0AA1FBB1FA6170C
:10432000B70710F0A61BB70B881F991F5A95A9F75E
:1043300080959095BC01CD01089597FB072E16F44A
:10434000009407D077FD09D00E94892107FC05D091
:104350003EF4909581959F4F0895709561957F4F9C
:1043600008950E943821B7FF0895821B930B08958A
:10437000EE0FFF1F0590F491E02D09940F931F930A
:10438000CF93DF938230910510F482E090E0E091CA
:104390006E05F0916F0530E020E0B0E0A0E03097CE
:1043A00099F42115310509F44AC0281B390B243032
:1043B0003105D8F58A819B816115710589F1FB0171
:1043C00093838283FE0111C0408151810281138158
:1043D00048175907E0F04817590799F4109761F00A
:1043E00012960C93129713961C933296CF01DF917D
:1043F000CF911F910F91089500936E0510936F0553
:10440000F4CF2115310551F04217530738F0A901B7
:10441000DB019A01BD01DF01F801C1CFEF01F9CF46
:1044200090936F0580936E05CDCFFE01E20FF31FD1
:10443000819391932250310939832883D7CF2091DA
:104440006C0530916D05232B41F420910A013091C8
:104450000B0130936D0520936C052091080130917C
:1044600009012115310541F42DB73EB740910C01EA
:1044700050910D01241B350BE0916C05F0916D05F9
:10448000E217F307A0F42E1B3F0B2817390778F02B
:10449000AC014E5F5F4F2417350748F04E0F5F1F8A
:1044A00050936D0540936C05819391939FCFF0E0FD
:1044B000E0E09CCFCF93DF930097E9F0FC013297C7
:1044C00013821282A0916E05B0916F05ED0130E06C
:1044D00020E01097A1F420813181820F931F209159
:1044E0006C0530916D052817390709F061C0F0930C
:1044F0006D05E0936C05DF91CF910895EA01CE1729
:10450000DF07E8F54A815B819E0141155105B1F74E
:10451000E901FB83EA8349915991C40FD51FEC1738
:10452000FD0761F4808191810296840F951FE90156
:1045300099838883828193819B838A83F0E0E0E082
:1045400012968D919C9113970097B9F52D913C91FE
:104550001197CD010296820F931F20916C05309127
:104560006D052817390739F6309751F510926F0508
:1045700010926E05B0936D05A0936C05BCCFD383EC
:10458000C28340815181840F951FC817D90761F4F8
:104590004E5F5F4F88819981480F591F5183408337
:1045A0008A819B81938382832115310509F0B0CFE5
:1045B000F0936F05E0936E059ECFFD01DC01C0CF47
:1045C00013821282D7CFB0E0A0E0E9EEF2E20C94C1
:1045D000E1208C01009751F4CB010E94BE218C0197
:1045E000C801CDB7DEB7E0E10C94FD20FC01E60F79
:1045F000F71F9C0122503109E217F30708F49DC010
:10460000D901CD91DC911197C617D70798F0C53025
:10461000D10530F3CE0104978617970708F3C61B20
:10462000D70B2297C193D1936D937C93CF010E94B6
:104630005A22D6CF5B01AC1ABD0A4C018C0E9D1ECE
:10464000A0916E05B0916F05512C412CF12CE12CFD
:10465000109731F580916C0590916D05881599053D
:1046600009F05CC04616570608F058C08091080152
:1046700090910901009741F48DB79EB740910C01CC
:1046800050910D01841B950BE817F90708F055C0F0
:10469000F0936D05E0936C05F90171836083A0CF01
:1046A0008D919C91119712966C90129713967C9015
:1046B0001397A815B90559F56C0142E0C40ED11C39
:1046C000CA14DB0420F1AC014A195B09DA01129625
:1046D000159780F06282738251834083D9016D9374
:1046E0007C93E114F10471F0D7011396FC93EE93DF
:1046F000129776CF22968C0F9D1FF90191838083AC
:10470000F301EFCFF0936F05E0936E0569CF481684
:10471000590608F42C017D01D3019ACFCB010E94E8
:10472000BE217C01009749F0AE01B8010E94A02390
:10473000C8010E945A22870153CF10E000E050CFF9
:10474000FB01DC0102C001900D9241505040D8F7AE
:104750000895FB01DC018D91019080190110D9F3BE
:10476000990B0895FB01DC0101900D920020E1F707
:104770000895FB01DC014150504048F001900D923A
:104780000020C9F701C01D9241505040E0F7089544
:1047900010E0C3E6D0E004C0FE010E94B8212196DB
:1047A000C436D107C9F7F894FFCFD007FFFFFFFF4A
:1047B000FF01000070058000000000006101C100E1
:1047C000EE00AE011F01FD00110100000000EC0928
:1047D000C1009209C00000000000F20CC50C3E0DA3
:1047E000AE0CBE0C9800AF0C5D005D2E625B0070DD
:1047F0005B002E76616C3D0067657420002E76614B
:104800006C0073444800734D4D0073415300626B5C
:10481000636D643D31007061676520300073446FE3
:0848200057002E7478740000AB
:107E0000112484B714BE81FFF0D085E080938100F7
:107E100082E08093C00088E18093C10086E0809377
:107E2000C20080E18093C4008EE0C9D0259A86E02C
:107E300020E33CEF91E0309385002093840096BBD3
:107E4000B09BFECF1D9AA8958150A9F7CC24DD24C4
:107E500088248394B5E0AB2EA1E19A2EF3E0BF2EE7
:107E6000A2D0813461F49FD0082FAFD0023811F036
:107E7000013811F484E001C083E08DD089C08234E0
:107E800011F484E103C0853419F485E0A6D080C0E4
:107E9000853579F488D0E82EFF2485D0082F10E0AE
:107EA000102F00270E291F29000F111F8ED06801E7
:107EB0006FC0863521F484E090D080E0DECF843638
:107EC00009F040C070D06FD0082F6DD080E0C81688
:107ED00080E7D80618F4F601B7BEE895C0E0D1E017
:107EE00062D089930C17E1F7F0E0CF16F0E7DF06D8
:107EF00018F0F601B7BEE89568D007B600FCFDCFD4
:107F0000A601A0E0B1E02C9130E011968C91119780
:107F100090E0982F8827822B932B1296FA010C0160
:107F200087BEE89511244E5F5F4FF1E0A038BF0790
:107F300051F7F601A7BEE89507B600FCFDCF97BE46
:107F4000E89526C08437B1F42ED02DD0F82E2BD052
:107F50003CD0F601EF2C8F010F5F1F4F84911BD097
:107F6000EA94F801C1F70894C11CD11CFA94CF0C13
:107F7000D11C0EC0853739F428D08EE10CD085E9AC
:107F80000AD08FE07ACF813511F488E018D01DD067
:107F900080E101D065CF982F8091C00085FFFCCF94
:107FA0009093C60008958091C00087FFFCCF809118
:107FB000C00084FD01C0A8958091C6000895E0E648
:107FC000F0E098E1908380830895EDDF803219F02E
:107FD00088E0F5DFFFCF84E1DECF1F93182FE3DFCA
:107FE0001150E9F7F2DF1F91089580E0E8DFEE27F6
:047FF000FF270994CA
:027FFE00040479
:00000001FF
