:100000000C94DE000C9406010C9406010C9406017D
:100010000C9406010C9406010C9406010C94060144
:100020000C9406010C9406010C9406010C94060134
:100030000C9406010C9406010C9406010C94060124
:100040000C94F1100C9406010C94BF100C949910B0
:100050000C9406010C9406010C9406010C94060104
:100060000C943B110C9406010000000024002700B2
:100070002A0000000008000201000003040700003D
:100080000000000000000000000000000000000070
:100090000000000000000000000000000000000060
:1000A0000000010101010101010101010101010241
:1000B0000202020202020203030303030303040415
:1000C00004040405050505060606060707070708D4
:1000D00008080909090A0A0A0B0B0B0C0C0D0D0D77
:1000E0000E0E0F0F101011111212131314141515F8
:1000F000161617181819191A1B1B1C1D1D1E1F2058
:100100002021222323242526272728292A2B2C2D8A
:100110002E2F303132323334363738393A3B3C3D8A
:100120003E3F40424344454648494A4B4D4E4F515D
:100130005253555657595A5C5D5F606263656668F5
:10014000696B6D6E7072737577787A7C7E7F818350
:100150008587898A8C8E90929496989A9C9EA0A26C
:10016000A4A7A9ABADAFB1B4B6B8BABDBFC1C4C640
:10017000C8CBCDD0D2D5D7DADCDFE1E4E7E9ECEFCC
:10018000F1F4F7F9FCFF010204081020408001029D
:1001900004081020010204081020000000002500BF
:1001A00028002B00040404040404040402020202D4
:1001B000020203030303030367127B1D11241FBE06
:1001C000CFEFD8E0DEBFCDBF12E0A0E0B1E0E0E9C4
:1001D000F5E402C005900D92A833B107D9F723E0EA
:1001E000A8E3B2E001C01D92A33FB207E1F710E01F
:1001F000CDEDD0E004C02197FE010E94BA20CC3D95
:10020000D107C9F70E942E130C94BB220C94000056
:100210004F925F926F927F928F929F92AF92BF9216
:10022000FF922091C9033091CA038217930708F007
:1002300043C02B0166247724852E962EA72EBB243F
:10024000B82DA42F2091CF03F42C222391F0E22F7C
:10025000F0E0E49DD001E59DB00DF49DB00D1124BA
:10026000FB2E289D40011124B92D249F90011124BB
:10027000A32FE091D5032091D0033091D103509169
:10028000D203E51323C0FC01EE0FFF1F8E0F9F1F4B
:10029000820F931FE091D203E80FF92FF11DF08236
:1002A000E091D303E80FF92FF11DB0832091D4031F
:1002B000820F911DFC01A083FF90BF90AF909F9093
:1002C0008F907F906F905F904F900895880F991F47
:1002D000880F991F820F931FE80FF92FF11D1082CD
:1002E000D9CF089508950895AF92BF92CF92DF922B
:1002F000EF92FF920F931F93CF93DF936C017B01DB
:100300008B01040F151FEB015E01AE18BF08C0176B
:10031000D10759F06991D601ED91FC910190F081DE
:10032000E02DC6010995892B79F7C501DF91CF91A1
:100330001F910F91FF90EF90DF90CF90BF90AF9003
:100340000895FC01538D448D252F30E0842F90E0DB
:10035000821B930B541710F0CF96089501970895C0
:10036000FC01918D828D981761F0A28DAE0FBF2F89
:10037000B11D5D968C91928D9F5F9F73928F90E0DF
:1003800008958FEF9FEF0895FC01918D828D98174E
:1003900031F0828DE80FF11D858D90E008958FEF8B
:1003A0009FEF0895FC01918D228D892F90E0805C54
:1003B0009F4F821B91098F73992708958EE193E0D7
:1003C0000E94D20121E0892B09F420E0822F0895B8
:1003D00080E090E0892B29F00E94DE0181110C94CD
:1003E00000000895FC01A48DA80FB92FB11DA35AD8
:1003F000BF4F2C91848D90E001968F739927848F45
:10040000A689B7892C93A089B1898C918370806467
:100410008C93938D848D981306C00288F389E02D08
:1004200080818F7D80830895EF92FF920F931F93B9
:10043000CF93DF93EC0181E0888F9B8D8C8D981397
:100440001AC0E889F989808185FF15C09FB7F894A3
:10045000EE89FF896083E889F989808183708064EF
:1004600080839FBF81E090E0DF91CF911F910F913A
:10047000FF90EF900895F62E0B8D10E00F5F1F4F49
:100480000F731127E02E8C8D8E110CC00FB607FC58
:10049000FACFE889F989808185FFF5CFCE010E94E6
:1004A000F201F1CFEB8DEC0FFD2FF11DE35AFF4F61
:1004B000F0829FB7F8940B8FEA89FB898081806274
:1004C000CFCFCF93DF93EC01888D8823B9F0AA8931
:1004D000BB89E889F9898C9185FD03C0808186FDFF
:1004E0000DC00FB607FCF7CF8C9185FFF2CF80814E
:1004F00085FFEDCFCE010E94F201E9CFDF91CF91D0
:10050000089590E0FC01EE58FF4F2491FC01EA575A
:10051000FE4F3491FC01EC55FE4FE491EE23C9F0FF
:10052000222339F0233001F1A8F4213019F12230CF
:1005300029F1F0E0EE0FFF1FE656FE4FA591B491B2
:100540008FB7F894EC91611126C030953E233C930F
:100550008FBF08952730A9F02830C9F0243049F71B
:10056000809180008F7D03C0809180008F77809381
:100570008000DFCF84B58F7784BDDBCF84B58F7DDE
:10058000FBCF8091B0008F778093B000D2CF809165
:10059000B0008F7DF9CF3E2BDACFCF93DF9390E081
:1005A000FC01EA57FE4F24918C559E4FFC0184912B
:1005B0008823D1F090E0880F991FFC01E859FF4F84
:1005C000A591B491FC01E656FE4FC591D4916111FD
:1005D0000EC09FB7F8948C91E22FE0958E238C93F8
:1005E0002881E223E8839FBFDF91CF9108958FB7E1
:1005F000F894EC91E22BEC938FBFF6CF3FB7F894D1
:100600008091A1029091A202A091A302B091A402B4
:1006100026B5A89B05C02F3F19F00196A11DB11D5D
:100620003FBFBA2FA92F982F8827BC01CD01620F99
:10063000711D811D911D42E0660F771F881F991F54
:100640004A95D1F70895CF92DF92EF92FF920F93E0
:100650001F93CF93DF93CDB7DEB729970FB6F894EA
:10066000DEBF0FBECDBF8091D0039091D103892B07
:1006700009F480C0C090D603D090D703E090D8038F
:10068000F090D9030E94FE026C157D058E059F0532
:1006900050F40E94FE026093D6037093D7038093B8
:1006A000D8039093D9030E94FE020091D6031091C3
:1006B000D7032091D8033091D903601B710B820BB3
:1006C000930B6C32714081059105A0F2F8948091F2
:1006D000CB039091CC039A838983E091D003F0916E
:1006E000D103DF011196808189879091C703E09142
:1006F000DA03F091DB038091DC03992309F449C00C
:100700009081982B98879081809589238F838F8102
:100710008C8388E08B8358856F8149853B812C8150
:1007200089819A81508347FD252F3A952083262F72
:1007300039F0441F00C000006083000000C0F2CF09
:1007400038E04D9160830000019761F7F093DB037F
:10075000E093DA0349873B832C839A8389837894D7
:100760000E94FE026093D6037093D7038093D80350
:100770009093D90329960FB6F894DEBF0FBECDBF74
:10078000DF91CF911F910F91FF90EF90DF90CF906D
:1007900008959081982B98879081809589238F83E5
:1007A0008F818E8388E08D8358856F8149853D8157
:1007B0002E8189819A81508347FD252F00C000C07A
:1007C000208300C000C000C000C000C060830000E3
:1007D000262F3A9541F0441F000000C000C000C021
:1007E00000C000C0E8CF38E04D9100C0608300C079
:1007F000019709F7F093DB03E093DA0349873D8320
:100800002E83ABCF8F929F92AF92BF92CF92DF9207
:10081000EF92FF926B017C010E94FE024B015C0192
:10082000C114D104E104F104B9F00E94FE02681978
:1008300079098A099B09683E73408105910580F317
:1008400021E0C21AD108E108F10888EE880E83E0A1
:10085000981EA11CB11CE4CFFF90EF90DF90CF90C9
:10086000BF90AF909F908F90089520917902260FAE
:100870003327331F21323105ECF42091F402FC01BF
:1008800090E080E0243069F082E00895A091790240
:100890002191AC01475A5D4FA40FB52FB11D2C9388
:1008A0000196861798F380917902680F6093790218
:1008B00080E0089581E008951092F40281E0809331
:1008C000F3021092CE0261E082E10E94810261E0B7
:1008D00083E10E948102E9EBF0E080818E7F8083DA
:1008E00080818D7F808388E48093B80085E4809345
:1008F000BC000895CF93DF9391E090935802882332
:10090000B9F0C091B800D091BA008091BC008A7B48
:100910008093BC0060E082E10E94810260E083E19C
:100920000E9481020E945C04D093BA00C093B80078
:10093000DF91CF9108958F929F92AF92BF92CF9205
:10094000DF92EF92FF920F931F93CF93DF93D0919B
:100950001D03D13208F0D7C0182FC0911C030E948C
:10096000FE026B017C018091F40281116BC082E078
:100970008093F4021093F3028FEF8093F2021092AF
:10098000F102D093F002ACEFB2E0E0EDF2E080E0F3
:10099000D81391C01092CF028091CF02CC0FC82BF8
:1009A000C093CF028091CE02813009F088C01092AE
:1009B000CE020E94FE026B017C018091CF028093E7
:1009C000BB008091F6029091F702A091F802B091DD
:1009D000F902892B8A2B8B2BA1F00E94FE02009139
:1009E000F6021091F7022091F8023091F9026C1989
:1009F0007D098E099F09061717072807390708F48C
:100A000042C08091BC0083FDD8CF85EC8093BC00B0
:100A10000E94FE026B017C018091F402823009F495
:100A200050C08091F2028F3F09F46FC08091F202B2
:100A3000803209F46CC08091F202803309F469C0FD
:100A400084E026C08091F6029091F702A091F8020E
:100A5000B091F902892B8A2B8B2B09F484CF0E9449
:100A6000FE028090F6029090F702A090F802B090FB
:100A7000F9026C197D098E099F0986169706A8064A
:100A8000B90608F070CF8091F5020E947A0485E0E3
:100A90001092FB0210921D031092FA02DF91CF9187
:100AA0001F910F91FF90EF90DF90CF90BF90AF908C
:100AB0009F908F9008959D9191938F5F69CF85EE60
:100AC000A5CF8091F6029091F702A091F802B09123
:100AD000F902892B8A2B8B2B09F49ECF0E94FE02F0
:100AE0000091F6021091F7022091F8023091F9027C
:100AF0006C197D098E099F09061717072807390702
:100B000008F08ACFC0CF81E0C3CF80E0C1CF82E0C0
:100B1000BFCF83E0BDCF0895E091AA028091A902E2
:100B2000E81730F4F0E0E85CFD4F808190E0089534
:100B30008FEF9FEF08959091AA028091A9022FEF65
:100B40003FEF981748F4E92FF0E0E85CFD4F208173
:100B500030E09F5F9093AA02C90108958091A90295
:100B60009091AA02891B990B0895CF92DF92EF9280
:100B7000FF920F931F93CF93DF937C01CB018A01E8
:100B80002091FA02222389F0EB016B01C40ED51EDD
:100B9000CC15DD0569F06991D701ED91FC910190CB
:100BA000F081E02DC7010995F3CF642F0E94350431
:100BB000C801DF91CF911F910F91FF90EF90DF90CF
:100BC000CF900895CF93DF931F92CDB7DEB769839F
:100BD0002091FA022223F9F020911D03203258F0CF
:100BE00021E030E0FC013383228390E080E00F902D
:100BF000DF91CF9108958091FB02E82FF0E0E4505F
:100C0000FD4F998190838F5F8093FB0280931D033A
:100C100081E090E0ECCF61E0CE0101960E943504C6
:100C2000F7CF90E080E00895CF93DF93EC010E942E
:100C30002303BE01DD0F880B990BDF91CF910C943C
:100C400002049C01215031099FE0929FA001939FD3
:100C5000500D112480FD06C061507109CA01860F34
:100C6000971F08952FE030E0C901861B970BBC0148
:100C7000F5CFAF92BF92CF92DF92EF92FF920F9398
:100C80001F93CF93DF93E901C42ED12CF12CE12CDB
:100C9000D82AE62A01E010E0AA24A394B12CB801D6
:100CA000C5010E942106B701A6010E940801CE01DC
:100CB0000E9414068FEFA81AB80A8FE0A816B10494
:100CC00071F70F5F1F4F0031110531F7DF91CF91A1
:100CD0001F910F91FF90EF90DF90CF90BF90AF905A
:100CE00008951F93CF93DF9311E0180F2091CF0346
:100CF0001217A1F1C091D003D091D103215070E01F
:100D000060E061F08F3FF1F430E050E040E06FEFE1
:100D10007FEF80E090E00E945F1FB901FE014091EB
:100D2000CB035091CC03CF018C1B9D0B84179507EF
:100D300098F44081469FC001479F900D11249083F5
:100D40003196EDCF812F90E0982F88270197622F61
:100D500070E00E94A620E2CF1093CF03DF91CF91E5
:100D60001F910895CF92DF92EF92FF92CF93DF937E
:100D7000D82FC62FC42E9091CF039150291721F060
:100D8000822F90E00E947106D12CF12CE12CDD2AFB
:100D9000EC2AD0E0C0E0B701A601CE010E94080114
:100DA0002196C63ED105B9F784EF91E0DF91CF914E
:100DB000FF90EF90DF90CF900C941406CF92DF92CB
:100DC000EF92FF92CF93DF93D82FC62FC42E90912E
:100DD000CF039150291721F0822F90E00E947106D5
:100DE000D12CF12CE12CDD2AEC2AC2EDD0E0B701A8
:100DF000A601CE010E9408012196C63ED105B9F791
:100E0000DF91CF91FF90EF90DF90CF9008952F92D8
:100E10003F924F925F926F927F928F929F92AF928A
:100E2000BF92CF92DF92EF92FF920F931F93CF93D7
:100E3000DF9300D01F92CDB7DEB78983362E242EE4
:100E4000122F8091CF038150281721F0822F90E03C
:100E50000E9471063FEAC32E32E0D32EEE24E394C3
:100E6000F12C50E1852E912CF601A190B1906F01EB
:100E70008FE090E09B838A83B401EA81FB816E1B43
:100E80007F0BC5010A8002C0969587950A94E2F708
:100E900080FD40C0802F902F402E512C712C612C52
:100EA000762C652C542C4424692A482AC7010E94B8
:100EB0002106B301A2010E9408018A819B8101974A
:100EC0009B838A83892BC1F69FEFE91AF90AEFE029
:100ED000EE16F10449F6212F422D632D89810E94DF
:100EE000DE0684EF91E00F900F900F90DF91CF918D
:100EF0001F910F91FF90EF90DF90CF90BF90AF9038
:100F00009F908F907F906F905F904F903F902F9029
:100F10000C941406C1014980C0CFEFEAF2E01192AF
:100F2000119282E0ED3CF807D1F70895FF920F93FC
:100F30001F93CF93DF93C82FD62F142FF22E0E942A
:100F40008D07EFEAF2E081E090EE9583848397834A
:100F500086839187808702E32F2D412F6D2F8C2F61
:100F60000E940707DF91CF911F910F91FF90089585
:100F7000FF920F931F93CF93DF93C82FD62F142F79
:100F8000F22E0E948D07EFEAF2E081E090EE938767
:100F900082879587848781E090EC97878687918BFD
:100FA000808B02E32F2D412F6D2F8C2F0E9407077E
:100FB000DF91CF911F910F91FF900895FF920F93B2
:100FC0001F93CF93DF93C82FD62F142FF22E0E949A
:100FD0008D07EFEAF2E081E09FE09583848381E072
:100FE0009CE19783868302E32F2D412F6D2F8C2F59
:100FF0000E940707DF91CF911F910F91FF900895F5
:10100000FF920F931F93CF93DF93C82FD62F142FE8
:10101000F22E0E948D07EFEAF2E08FE790E09583D1
:10102000848383E090E09783868302E32F2D412F12
:101030006D2F8C2F0E940707DF91CF911F910F9189
:10104000FF900895FF920F931F93CF93DF93C82FC4
:10105000D62F142FF22E0E948D07EFEAF2E08FE0D8
:1010600090E0958B848B978B868B918F808F02E39A
:101070002F2D412F6D2F8C2F0E940707DF91CF91CD
:101080001F910F91FF900895FF920F931F93CF939D
:10109000DF93C82FD62F142FF22E0E948D07EFEA70
:1010A000F2E081E092E0918780878FE090E097877F
:1010B000868702E32F2D412F6D2F8C2F0E9407076B
:1010C000DF91CF911F910F91FF900895FF920F93A1
:1010D0001F93CF93DF93C82FD62F142FF22E0E9489
:1010E0008D0789E190E09093C0028093BF0202E3F4
:1010F0002F2D412F6D2F8C2F0E940707DF91CF914D
:101100001F910F91FF900895FF920F931F93CF931C
:10111000DF93C82FD62F142FF22E0E948D0781E760
:1011200090E09093C2028093C10202E32F2D412FE1
:101130006D2F8C2F0E940707DF91CF911F910F9188
:10114000FF900895FF920F931F93CF93DF93C82FC3
:10115000D62F142FF22E0E948D07EFEAF2E081EFD6
:1011600097E0978B868B918F808F02E32F2D412FF5
:101170006D2F8C2F0E940707DF91CF911F910F9148
:10118000FF900895FF920F931F93CF93DF93C82F83
:10119000D62F142FF22E0E948D0781EF90E09093AE
:1011A000C4028093C30202E32F2D412F6D2F8C2F99
:1011B0000E940707DF91CF911F910F91FF90089533
:1011C000FF920F931F93CF93DF93C82FD62F142F27
:1011D000F22E0E948D0781E390E09093BE028093EF
:1011E000BD0202E32F2D412F6D2F8C2F0E94070788
:1011F000DF91CF911F910F91FF900895FF920F9370
:101200001F93CF93DF93C82FD62F142FF22E0E9457
:101210008D0781E890E09093BC028093BB0202E3CB
:101220002F2D412F6D2F8C2F0E940707DF91CF911B
:101230001F910F91FF900895FF920F931F93CF93EB
:10124000DF93C82FD62F142FF22E0E948D0781EC2A
:1012500091E09093CA028093C90202E32F2D412F9F
:101260006D2F8C2F0E940707DF91CF911F910F9157
:10127000FF900895FF920F931F93CF93DF93C82F92
:10128000D62F142FF22E0E948D0787E090E09093C6
:10129000BC028093BB0202E32F2D412F6D2F8C2FB8
:1012A0000E940707DF91CF911F910F91FF90089542
:1012B000FF920F931F93CF93DF93C82FD62F142F36
:1012C000F22E0E948D0789E390E09093CA028093EA
:1012D000C90202E32F2D412F6D2F8C2F0E9407078B
:1012E000DF91CF911F910F91FF900895FF920F937F
:1012F0001F93CF93DF93C82FD62F142FF22E0E9467
:101300008D07EFEAF2E087E090E0918B808B8FE031
:1013100090E0938B828B02E32F2D412F6D2F8C2F2A
:101320000E940707DF91CF911F910F91FF900895C1
:10133000FF920F931F93CF93DF93C82FD62F142FB5
:10134000F22E0E948D078FE190E09093BA02809375
:10135000B90202E32F2D412F6D2F8C2F0E9407071A
:10136000DF91CF911F910F91FF900895FF920F93FE
:101370001F93CF93DF93C82FD62F142FF22E0E94E6
:101380008D07EFEAF2E081EC91E09787868781E6AE
:1013900090E0918B808B02E32F2D412F6D2F8C2FAE
:1013A0000E940707DF91CF911F910F91FF90089541
:1013B000FF920F931F93CF93DF93C82FD62F142F35
:1013C000F22E0E948D0781E490E09093BA02809300
:1013D000B90202E32F2D412F6D2F8C2F0E9407079A
:1013E000DF91CF911F910F91FF900895FF920F937E
:1013F0001F93CF93DF93C82FD62F142FF22E0E9466
:101400008D07EFEAF2E081E092E09587848781E042
:101410009EE09787868781E09CE0918B808B81E0BE
:1014200098E0938B828B02E32F2D412F6D2F8C2F11
:101430000E940707DF91CF911F910F91FF900895B0
:10144000FF920F931F93CF93DF93C82FD62F142FA4
:10145000F22E0E948D07EFEAF2E081E893E0918B93
:10146000808B81E89FE0938B828B81E09FE0958B5E
:10147000848B02E32F2D412F6D2F8C2F0E940707A5
:10148000DF91CF911F910F91FF900895FF920F93DD
:101490001F93CF93DF93C82FD62F142FF22E0E94C5
:1014A0008D0781E091E09093BC028093BB0202E340
:1014B0002F2D412F6D2F8C2F0E940707DF91CF9189
:1014C0001F910F91FF900895FF920F931F93CF9359
:1014D000DF93C82FD62F142FF22E0E948D07EFEA2C
:1014E000F2E081E290E09387828781E090E2918B45
:1014F000808B02E32F2D412F6D2F8C2F0E94070729
:10150000DF91CF911F910F91FF900895FF920F935C
:101510001F93CF93DF93C82FD62F142FF22E0E9444
:101520008D0789E390E09093BC028093BB0202E3B5
:101530002F2D412F6D2F8C2F0E940707DF91CF9108
:101540001F910F91FF900895FF920F931F93CF93D8
:10155000DF93C82FD62F142FF22E0E948D0787E01D
:1015600090E09093CA028093C90202E32F2D412F8D
:101570006D2F8C2F0E940707DF91CF911F910F9144
:10158000FF900895FF920F931F93CF93DF93C82F7F
:10159000D62F142FF22E0E948D0785E090E09093B5
:1015A000B6028093B50202E32F2D412F6D2F8C2FB1
:1015B0000E940707DF91CF911F910F91FF9008952F
:1015C000CF92DF92EF92FF920F931F93CF93C82F8A
:1015D00081E08093FA0280E580931C031092FB0265
:1015E00010921D03692F8BEB93E00E94E2056C2F94
:1015F0008BEB93E00E94E20581E00E949B040E9435
:10160000FE026B017C018091F402811163C081E0D4
:101610008093F4028093F3029FEF9093F202109272
:10162000F1021092F0028093CF028091CF02806A83
:101630008093CF028091CE02813009F078C0109261
:10164000CE020E94FE026B017C018091CF0280934A
:10165000BB008091F6029091F702A091F802B09140
:10166000F902892B8A2B8B2BA1F00E94FE0200919C
:10167000F6021091F7022091F8023091F9026C19EC
:101680007D098E099F09061717072807390708F4EF
:1016900042C08091BC0083FDD8CF85EC8093BC0014
:1016A0000E94FE026B017C018091F402813009F4FA
:1016B00040C08091F10281115EC08091F102A0EDE5
:1016C000B2E0E8E3F2E090E0981751F12D91219318
:1016D0009F5FFACF8091F6029091F702A091F802F5
:1016E000B091F902892B8A2B8B2B09F48CCF0E94A5
:1016F000FE020091F6021091F7022091F80230915B
:10170000F9026C197D098E099F090617170728072A
:10171000390708F078CF8091F5020E947A0480E0C2
:101720001092AA028093A902811127C0FFCF85EEF3
:10173000B5CF8091F6029091F702A091F802B09196
:10174000F902892B8A2B8B2B09F4AECF0E94FE0263
:101750000091F6021091F7022091F8023091F902FF
:101760006C197D098E099F09061717072807390785
:1017700008F09ACFD0CF81E0A2CF8BEB93E00E940C
:101780009B05C82F81E00E949B048C2FCF911F9155
:101790000F91FF90EF90DF90CF900895EF92FF921E
:1017A0000F931F93CF93DF937C018B0180E190E037
:1017B0000E94E00AD82FF801808301E110E0C0E028
:1017C000C8010E94E00AF701EC0FF11D80830F5F52
:1017D0001F4FCF5FDC17A0F7DF91CF911F910F91C3
:1017E000FF90EF900895CF93DF93EC01888199816A
:1017F000009711F00E945C21198218821D821C82C0
:101800001B821A82DF91CF910895FC018081918122
:10181000009711F00C945C2108958F929F92AF92E3
:10182000BF920F931F93CF93DF93CDB7DEB7A197EE
:101830000FB6F894DEBF0FBECDBF19A2423008F438
:101840004AE08E010F5D1F4F842E912CB12CA12CEC
:10185000A50194010E94C81FE62FB901CA01EA3010
:1018600044F5E05DD801EE938D01232B242B252B2D
:1018700079F790E080E0109769F0FD010190002079
:10188000E9F73197AF014A1B5B0BBD018EE193E095
:101890000E947401A1960FB6F894DEBF0FBECDBFB3
:1018A000DF91CF911F910F91BF90AF909F908F903C
:1018B0000895E95CD7CF682F70E090E080E04AE0BF
:1018C0000C940D0CFC0101900020E9F73197AF0159
:1018D000481B590BBC018EE193E00C947401FC0190
:1018E000248135814091E1035091E20324173507AB
:1018F000E1F4808191816091DD037091DE030097B6
:10190000D1F061157105A1F4232BC1F0FC01808198
:1019100090E008C0232B91F0FB01808190E091952D
:101920008195910921E0892B09F020E0822F08950B
:101930000E94AB22F7CF6115710561F721E0F6CF68
:10194000EF92FF920F931F93CF93DF93C62FD42F65
:10195000122F0E946F0C811107C0202F412F6D2F75
:101960008C2FF7010995FFCFDF91CF911F910F9138
:10197000FF90EF9008950F931F93CF93DF93EC01A7
:1019800088819981009759F02A813B812617370772
:1019900030F081E0DF91CF911F910F9108958B017D
:1019A0006F5F7F4F0E94E521009759F099838883EC
:1019B0001B830A832C813D81232B59F7FC01108264
:1019C000E8CF80E0E7CFEF92FF920F931F93CF9382
:1019D000DF93EC01FB01E080F180E114F10411F1EF
:1019E0000481158101151105A9F08C819D81080FD5
:1019F000191FB801CE010E94BB0C882399F02881E1
:101A000039818C819D81B701820F931F0E94B4227E
:101A10001D830C83CE01DF91CF911F910F91FF9019
:101A2000EF900895CE010E94F30BF4CFEF92FF9256
:101A30000F931F93CF93DF93EC017B018A01BA01CF
:101A40000E94BB0C81110BC0CE010E94F30BCE0192
:101A5000DF91CF911F910F91FF90EF9008951D831B
:101A60000C83B701888199810E94B422F0CFEF9254
:101A7000FF920F931F93CF93DF93CDB7DEB72997D4
:101A80000FB6F894DEBF0FBECDBF8C01862FF801D4
:101A90001182108213821282158214824AE09E0102
:101AA0002F5F3F4F7901B90190E00E943A1EF70184
:101AB00001900020E9F73197AF014E195F09B70196
:101AC000C8010E94160D29960FB6F894DEBF0FBE0E
:101AD000CDBFDF91CF911F910F91FF90EF900895AF
:101AE000FB01DC0111961C921E9213961C921E9211
:101AF000129715961C921E9214978617970759F005
:101B0000608171816115710521F0448155810C94CA
:101B1000160D0C94F30B089585ED8093BC00809115
:101B2000F6029091F702A091F802B091F90207969F
:101B3000A11DB11D23E0B695A795979587952A9588
:101B4000D1F72091BC0024FD03C01092F402089547
:101B50004091F6025091F7026091F8027091F902FB
:101B6000452B462B472B69F30097A105B10541F0A2
:101B700025E32A95F1F700000197A109B109E1CF0A
:101B80008091F5020C947A042F923F924F925F92CB
:101B90006F927F928F929F92AF92BF92CF92DF927D
:101BA000EF92FF920F931F93CF93DF93CDB7DEB7E2
:101BB00067970FB6F894DEBF0FBECDBF6983242EA2
:101BC000322E0D8B0E946F0C81119AC288EF9AE21F
:101BD000A0E0B0E08093AB029093AC02A093AD0282
:101BE000B093AE02832D90E0B0E0A22D6C017D0198
:101BF0001981D12AC98ADA8AEB8AFC8AC22CCC0CD8
:101C0000CC0CCE82169516951F838C2D90E0B0E0FB
:101C1000A0E0DC0199278827232D26952695822B85
:101C20007C018D01CF80FC28ED86FE860F87188B06
:101C3000822D8695869590E0B0E0A0E08C01FF248F
:101C4000EE24EA82FB820C831D83F32CF694F69437
:101C5000F694F886898166E00E949A20932D990F68
:101C6000990F4A815B816C817D81492B6A017B01DF
:101C7000D82AC986DA86EB86FC868091AB029091E1
:101C8000AC02A091AD02B091AE02813107E29007A3
:101C9000A105B1050CF424C202E010E01F8B0E8BED
:101CA000EE88FF8811E0E11AF10801E010E0B701C9
:101CB000C8010E94210649895A896B897C890E9442
:101CC00008016E897F898FE090E0801B910B0E9454
:101CD00021064D855E856F8578890E94080188E21E
:101CE00090E00E9414060F5F1F4F0F301105F9F6A8
:101CF0000E891F890F5F1F4F1F8B0E8B043211053A
:101D000079F622E330E04981632D822D0E94390665
:101D100001E010E01F8B0E8B0EE010E06E897F89D2
:101D2000C8010E9421064A815B816C817D810E94ED
:101D300008018CE390E00E9414060150110971F72C
:101D40000E891F890F5F1F4F1F8B0E8B00311105EE
:101D500019F72D89432D622D89810E94DE0602E04C
:101D600010E08EE19AE5C92ED12CF12CE12C760100
:101D7000DD24CC2446015701882A29E630E03F8B38
:101D80002E8BB501A4018E899F890E940801B7019D
:101D9000A60181ED90E02E893F89821B930B0E9462
:101DA000080184E690E00E9414064E895F89415044
:101DB00051095F8B4E8B4F3F5F4F19F790E080E0EA
:101DC0000130110509F086C102E010E09AE08AE5D1
:101DD000C92ED12CF12CE82E1F8A1E8AB701A6012C
:101DE0008E899F890E94080184E690E00E94140673
:101DF0008E899F8901969F8B8E8B823D910571F70D
:101E000080E090E00130110509F067C128E230E080
:101E100048856E818F810E9439060FE010E01F8B8C
:101E20000E8B0EE010E06E897F89C8010E942106AA
:101E300049855A856B857C850E94080182E390E084
:101E40000E9414060150110971F72E893F89215013
:101E500031093F8B2E8B232B21F71F8A1E8A0E946C
:101E6000E21D6B017C010E94E21D4B015C010E949E
:101E7000E21D26E430E040E050E00E945F1F2B01AD
:101E80003C013EE1430E511C611C711C3201552482
:101E90004424442455247724C501B40120E530E0CE
:101EA00040E050E00E945F1FAB01BC014C5E5F4F01
:101EB0006F4F7F4F762F652F542F44276627772744
:101EC000442A552A662A772AC701B6012DEC30E04C
:101ED00040E050E00E945F1F6E5C7F4F8F4F9F4F2E
:101EE00073016201C62AB701A6018E899F890E94EB
:101EF000080184E690E00E9414062E893F892F5F36
:101F00003F4F3F8B2E8B223D310509F0A8CF42ED8C
:101F1000E42EF12C40E050E0BA01C7010E94080114
:101F200084E690E00E94140631E0E31AF10890F78D
:101F30000E94E21D6B017C010E94E21D4B015C01CD
:101F40000E94E21D26E430E040E050E00E945F1F66
:101F50002B013C015EE1450E511C611C711C3201DC
:101F600055244424442455247724C501B40120E594
:101F700030E040E050E00E945F1FAB01BC014C5ECE
:101F80005F4F6F4F7F4F762F652F542F4427662763
:101F90007727442A552A662A772AC701B6012DECED
:101FA00030E040E050E00E945F1F6E5C7F4F8F4F3B
:101FB0009F4F73016201C62AB701A601C8010E94A2
:101FC00008018AE090E00E9414060E94E21D6B0165
:101FD0007C010E94E21D4B015C010E94E21D26E48F
:101FE00030E040E050E00E945F1F2B013C012EE1F9
:101FF000420E511C611C711C32015524442444249E
:1020000055247724C501B40120E530E040E050E0DC
:102010000E945F1FAB01BC014C5E5F4F6F4F7F4F53
:10202000762F652F542F442766277727442A552A71
:10203000662A772AC701B6012DEC30E040E050E077
:102040000E945F1F6E5C7F4F8F4F9F4F7301620135
:10205000C62AB701A601C80187599F4F0E940801EF
:1020600084E690E00E9414060F5F1F4F09361105A9
:1020700009F05ECF40E050E0BA018E899F890E944E
:1020800008018AE090E00E94140640E050E0BA01A6
:102090008E899F89895691090E94080184E690E003
:1020A0000E9414060E891F89015011091F8B0E8B87
:1020B0000F3F1F4FF9F664E670E080E090E00E9469
:1020C00002041092AB021092AC021092AD02109278
:1020D000AE02D3CD01E010E046CE01E010E078CEB4
:1020E0000196A11DB11D8093AB029093AC02A09309
:1020F000AD02B093AE028BE891E00197F1F7BDCD50
:1021000067960FB6F894DEBF0FBECDBFDF91CF91BB
:102110001F910F91FF90EF90DF90CF90BF90AF9005
:102120009F908F907F906F905F904F903F902F90F7
:1021300008951F920F920FB60F9211242F933F9381
:102140004F935F936F937F938F939F93AF93BF93BF
:10215000EF93FF938EE193E00E94F201FF91EF91E4
:10216000BF91AF919F918F917F916F915F914F91AF
:102170003F912F910F900FBE0F901F9018951F92B7
:102180000F920FB60F9211242F938F939F93EF937B
:10219000FF93E0912E03F0912F038081E0913403AF
:1021A000F091350382FD1BC09081809137038F5FD2
:1021B0008F7320913803821741F0E0913703F0E0EC
:1021C000E25EFC4F958F80933703FF91EF919F91D3
:1021D0008F912F910F900FBE0F901F9018958081B7
:1021E000F4CF1F920F920FB60F9211242F933F93AB
:1021F0008F939F93AF93BF9380919D0290919E0286
:10220000A0919F02B091A00230919C0223E0230F85
:102210002D3758F50196A11DB11D20939C02809386
:102220009D0290939E02A0939F02B093A002809182
:10223000A1029091A202A091A302B091A4020196E2
:10224000A11DB11D8093A1029093A202A093A302AD
:10225000B093A402BF91AF919F918F913F912F9125
:102260000F900FBE0F901F90189526E8230F02962F
:10227000A11DB11DD2CF1F920F920FB60F92112444
:102280002F933F934F935F936F937F938F939F937E
:10229000AF93BF93EF93FF938091B900887F80360F
:1022A00009F44AC0F0F5883209F4A7C018F5803166
:1022B00009F49BC0B8F4882309F4F9C0883009F404
:1022C00094C0FF91EF91BF91AF919F918F917F91BA
:1022D0006F915F914F913F912F910F900FBE0F9093
:1022E0001F901895883109F488C0803251F7809387
:1022F000F20214C0803409F49DC040F48033B9F375
:102300008833F9F68093F20285ECB0C0803509F489
:1023100085C0883509F496C0883499F60E948C0DE2
:10232000D0CF883909F48CC038F5883729F050F4BB
:10233000883611F0803729F683E08093F4021092FA
:102340009B0257C0883809F47BC0803919F0803867
:1023500009F0B7CF80919B02803208F071C0E09104
:102360009B0281E08E0F80939B028091BB00F0E086
:10237000E558FD4F80833DC0803B39F0E0F4803A62
:1023800009F479C0883A09F09CCF84E08093F40284
:1023900010927A0210927902E091A702F091A802BD
:1023A00009958091790281110FC081E080937902B3
:1023B0001092590209C0803C09F4A6CF883C09F468
:1023C000A3CF883B09F07DCFE0917A0281E08E0FA8
:1023D00080937A02F0E0E75AFD4F80818093BB0042
:1023E00090917A028091790229C08091CF028093E6
:1023F000BB0085EC8093BC0064CF9091F10280918A
:10240000F002981758F5E091F10281E08E0F809369
:10241000F102F0E0E053FD4F8081E9CFE091F1025D
:1024200081E08E0F8093F1028091BB00F0E0E053D9
:10243000FD4F80839091F1028091F0029817C8F2CD
:1024400085E8D8CFE091F10281E08E0F8093F10210
:102450008091BB00F0E0E053FD4F80838091F30258
:1024600081115CCF81E08093CE0284EA8093BC002E
:102470001092F40226CF85EC8093BC001092F402F7
:1024800080919B02803230F4E0919B02F0E0E558AD
:10249000FD4F108260919B0270E0E091A502F091E7
:1024A000A6028BE792E0099510929B020ACF109248
:1024B000F20234CFFC011182108213821282158243
:1024C000148250E040E067E372E00C94160DCF9365
:1024D000DF93109221031092200388EE93E0A0E096
:1024E000B0E08093220390932303A0932403B0933E
:1024F000250323E131E030931F0320931E0325ECD5
:1025000030E030932B0320932A0324EC30E0309307
:102510002D0320932C0320EC30E030932F032093E5
:102520002E0321EC30E0309331032093300322EC72
:1025300030E0309333032093320326EC30E03093C5
:10254000350320933403109237031092380310920E
:10255000390310923A031092BE031092BD03809388
:10256000BF039093C003A093C103B093C20385E25D
:1025700091E09093BC038093BB0389EE93E00E94AB
:102580005A1283EE93E00E945A128DED93E00E945E
:102590005A121092C8031092CF031092D6031092D1
:1025A000D7031092D8031092D90381E08093D5030A
:1025B0008093D2031092D30392E09093D40380933C
:1025C000C703C2EBD2E0D093CC03C093CB0382EB22
:1025D00092E00E94C0209093D1038093D003009793
:1025E000A1F1FC019E01119221503040E1F786EEED
:1025F00090E09093CA038093C9038DE090E090939C
:10260000CE038093CD038091C803882341F061E01D
:102610008DE00E94CD0260E08DE00E948102E1EB3E
:10262000F1E0E491F0E0EE0FFF1FE656FE4F8591DA
:1026300094919093DB038093DA03E3E9F1E0E49172
:10264000E093DC03DF91CF9108951092CC031092B8
:10265000CB031092CA031092C903CFCFCF93DF935D
:10266000CDB7DEB7C35AD1090FB6F894DEBF0FBE9F
:10267000CDBF789484B5826084BD84B5816084BD0B
:1026800085B5826085BD85B5816085BD80916E0010
:10269000816080936E001092810080918100826041
:1026A000809381008091810081608093810080917E
:1026B00080008160809380008091B100846080936D
:1026C000B1008091B00081608093B00080917A0069
:1026D000846080937A0080917A00826080937A008F
:1026E00080917A00816080937A0080917A0080687E
:1026F00080937A001092C100E0912E03F0912F0395
:1027000082E08083E0912A03F0912B031082E09114
:102710002C03F0912D038FEC808310923603E0910F
:102720003203F091330386E08083E0913003F0912F
:102730003103808180618083E0913003F091310327
:10274000808188608083E0913003F0913103808143
:1027500080688083E0913003F091310380818F7D28
:10276000808360E08CE00E94CD0282E390E00E94D2
:1027700071068091CD039091CE0397FD08C061E072
:102780000E94CD0260E08091CD030E94810281E031
:102790008093C8030E94230364EF71E080E090E01F
:1027A0000E94020410E000E04FEF5FEF6FEF70E077
:1027B000C8010E9408010F5F1F4F063E1105A1F7D7
:1027C0000E94230364EF71E080E090E00E94020425
:1027D0001092AA021092A9021092FB0210921D03FD
:1027E0000E945C0482E791E09093A8028093A70284
:1027F00083E791E09093A6028093A50284E1809301
:10280000BA0083E391E00E94620C40E16AE070E06C
:1028100080E090E00E940D0C85E591E00E94620C42
:102820004AE06AE070E080E090E00E940D0C60ED0C
:1028300077E080E090E00E9402045E0123E3A20EB4
:10284000B11C2E013BE6430E511CCE0101963C010A
:1028500010E0812E10E0912EB2E33B2E81E691E054
:102860000E94620C86E392E00E94620C84E791E091
:102870000E94620C86E392E00E94620C90E080E08D
:102880000E94E00A8093040181E090E00E94E00A47
:102890008093030182E090E00E94E00A80930201AD
:1028A00083E090E00E94E00A8093010184E090E0E0
:1028B0000E94E00A8093000188E891E00E94620C87
:1028C00086E392E00E94620C86E991E00E94620C2D
:1028D000809104010E945B0C86E392E00E94620CEE
:1028E0008DE991E00E94620C809103010E945B0CD3
:1028F00086E392E00E94620C80EA91E00E94620C02
:10290000809102010E945B0C86E392E00E94620CBF
:1029100083EA91E00E94620C809101010E945B0CAD
:1029200086E392E00E94620C86EA91E00E94620CCB
:10293000809100010E945B0C86E392E00E94620C91
:10294000D501E32D1D92EA95E9F7C757DF4F1882AD
:10295000C958D040BE0167577F4FC5010E94CE0BBA
:102960008AEA91E00E94620CC757DF4F8881C958FC
:10297000D0400E945B0C86E392E00E94620C84EBE4
:1029800091E00E94620CC5010E94620C86E392E015
:102990000E94620C8AEB91E00E94620C2090000180
:1029A000E0910101F0E0EA57FF4FD490E09102017D
:1029B000F0E0EA57FF4FC490E0910301F0E0EA57DE
:1029C000FF4F149100910401622DCE018B599F4F4E
:1029D0000E94370D6D2DC2010E94370D6C2DCE0166
:1029E0008F589F4F0E94370D612FCE0189589F4FFE
:1029F0000E94370D602FCE018D579F4F0E94370DDB
:102A0000BE016D577F4FCE0183589F4F0E94700DBE
:102A1000BE0169587F4FCE0183589F4F0E94E30C3F
:102A2000BE016F587F4F0E94E30CB2010E94E30C7D
:102A3000BE016B597F4F0E94E30CBC01C3010E9491
:102A4000700D8091E9039091EA03009709F473C037
:102A500069817A816115710509F46BC04091EB03BE
:102A60005091EC032D813E814217530708F461C059
:102A70000E94B4228D819E819093EE038093ED039A
:102A80001E821D82C3010E94050CCE0183589F4FF8
:102A90000E94050CCE018D579F4F0E94050CCE0160
:102AA00089589F4F0E94050CCE018F589F4F0E945E
:102AB000050CC2010E94050CCE018B599F4F0E944C
:102AC000050C0B3511F40C94031D08F060C10034A3
:102AD00009F456C708F023C1013309F4D4C108F042
:102AE00041C00E3109F4BDC10F3109F4BAC1011161
:102AF00040C069EE73E0C3010E94700DC3010E94E3
:102B00006F0C811112C0222D4D2D6C2D812F0E9432
:102B1000B20669817A816115710509F4AFC14D81F1
:102B20005E818DED93E00E94160DC3010E94050C9D
:102B300020C00E945C2189819A819093EA0380934E
:102B4000E9038B819C819093EC038093EB038D814F
:102B50009E819093EE038093ED031A8219821C826A
:102B60001B828ECF073309F429C348F5043309F4D7
:102B70009BC165E070E080E090E00E9402048091DB
:102B8000CD0291E089278093CD0284EE91E00E94EE
:102B9000620C60E67AEE80E090E00E94020480E140
:102BA00092E00E94620C8114910409F457CE0E94B5
:102BB000DE01882309F450CE0E9400004DCE0A3376
:102BC00009F4C2C30D33A9F669EE73E0CE018B5947
:102BD0009F4F0E94700D82E3D3011D928A95E9F701
:102BE000E2961FAEE297BE016F587F4FC3010E946D
:102BF000CE0BF0EEFF2EA0E2AA2EB0E49B2EF20147
:102C00003596CA56DF4FF983E883C659D040E2961D
:102C10008FADE2978150C656DF4F8883CA59D040A6
:102C20000E948D07312C60E8B62E70EAE72EE8EF9F
:102C30008E2ED201E5E01D92EA95E9F79301230D6E
:102C4000311DCE56DF4F39832883C259D040D90178
:102C5000EC91E052EB3508F084C60E2E000CFF0B11
:102C6000EC5CF94E0C94BA20B71CB11CB11CB11C21
:102C7000B11CB11CB11CB11CB11CB11CB11CB11CEC
:102C8000B11CB11C6A1A731A921AA01AA81CA71AAE
:102C9000AE1ABD1AC51ACE1AD61ADC1AB11CB11C4E
:102CA000B11CB11CB11C891AB11CE11AEF1AF51A3A
:102CB000011B051B0F1B161B281B2F1B3B1B401B3F
:102CC0004D1B531B351C411C461C541C5B1C651CB6
:102CD000691C771C7A1C861C951CA11CA81CB11CA5
:102CE000B11CB11CB11CB11CB11CE11AEF1AF51AD0
:102CF000011B051B0F1B161B281B2F1B3B1B401BFF
:102D00004D1B531B351C411C461C541C5B1C651C75
:102D1000691C771C7A1C861C951CA11CA81C0C34F1
:102D200009F453C698F4063409F43BC6093409F48F
:102D300042C6033409F01DCF69EE73E0C3010E945F
:102D4000700DB8EBEB2EB7E0FB2E23C6023509F46D
:102D500046C668F40F3409F00CCF69EE73E0C30186
:102D60000E94700D74E4E72E78E0F72E12C6053548
:102D700009F43FC6083509F0FCCE69EE73E0C301E3
:102D80000E94700D42EAE42E48E0F42E02C6063797
:102D900009F475C6C0F5073609F453C698F4013630
:102DA00009F43BC6043609F442C60E3509F0E1CEFB
:102DB00069EE73E0C3010E94700D20EEE22E28E060
:102DC000F22EE7C50D3609F446C668F40A3609F056
:102DD000D0CE69EE73E0C3010E94700DB8E5EB2E12
:102DE000B9E0FB2ED6C5003709F43FC6033709F01A
:102DF000C0CE69EE73E0C3010E94700DE6EBEE2ECB
:102E0000E9E0FE2EC6C5023809F457C698F40C371F
:102E100009F43FC60F3709F446C6093709F0A9CEB1
:102E200069EE73E0C3010E94700D66EFE62E69E063
:102E3000F62EAFC5083809F44AC668F4053809F01B
:102E400098CE69EE73E0C3010E94700D26E8E22E71
:102E50002AE0F22E9EC50B3809F443C60E3809F05D
:102E600088CE69EE73E0C3010E94700D022D2D2DF6
:102E70004C2D612FC3010E94C40D57CE8DED93E000
:102E80000E94F30B52CE69EE73E0C3010E94700DF5
:102E9000C3010E946F0C811148CE222D4D2D6C2D47
:102EA000812F0E94B206FFCF69EE73E0C3010E943A
:102EB000700DC3010E946F0C811137CE88EF9AE22A
:102EC000A0E0B0E08093AB029093AC02A093AD027F
:102ED000B093AE022AE030E0C657DF4F3983288333
:102EE000CA58D04084E690E0C457DF4F9983888366
:102EF000CC58D040812F90E0B0E0A0E0CA56DF4F20
:102F000088839983AA83BB83C659D0408C2D90E0D7
:102F1000B0E0A0E0C656DF4F88839983AA83BB83C5
:102F2000CA59D0408D2D90E0B0E0A0E0C256DF4FEE
:102F300088839983AA83BB83CE59D040A22DB0E069
:102F4000CE55DF4FB983A883C25AD0408091AB02DF
:102F50009091AC02A091AD02B091AE028938E3E14C
:102F60009E07A105B1050CF419C1C457DF4F288194
:102F70003981CC58D040B901330F880B990B0E948E
:102F8000661E20E030E048EC52E40E94F91F4B013D
:102F90005C0164E670E0C457DF4F88819981CC58AA
:102FA000D040681B790B072E000C880B990B0E94F0
:102FB000661E20E030E048EC52E40E94F91F6B01ED
:102FC0007C01CA56DF4F688179818A819B81C6590D
:102FD000D0400E94661EC257DF4F688379838A8380
:102FE0009B83CE58D0409B01AC01C501B4010E9427
:102FF000A11E0E946B20362EC656DF4F6881798154
:103000008A819B81CA59D0400E94661ECE56DF4FEE
:10301000688379838A839B83C259D0409B01AC012A
:10302000C501B4010E94A11E0E946B20062FC2564A
:10303000DF4F688179818A819B81CE59D0400E947F
:10304000661E2B013C01AC019B01C501B4010E942D
:10305000A11E0E946B20162FC257DF4F2881398195
:103060004A815B81CE58D040C701B6010E94A11EA3
:103070000E946B20B62ECE56DF4F288139814A81BF
:103080005B81C259D040C701B6010E94A11E0E94B7
:103090006B20A62EA3019201C701B6010E94A11EBA
:1030A0000E946B20862E8091CF038150281641F01C
:1030B000CE55DF4F88819981C25AD0400E94710657
:1030C000912EC32CD02EF12CE12C4C2D50E070E031
:1030D00060E0762F652F542F44276D294929C701B9
:1030E0000E9408013C103AC0CB2C0D1139C0DA2CDB
:1030F000191138C0982C9FEFE91AF90AA2EDEA16C7
:10310000F10419F7222D44EC68EF89E60E94DE06EF
:1031100084EF91E00E941406C457DF4F88819981A3
:10312000CC58D040C657DF4FE881F981CA58D0400B
:103130008E1B9F0B97FF18C0F195E195F109C657BB
:10314000DF4FF983E883CA58D0401092AB02109247
:10315000AC021092AD021092AE02F8CEC32CC5CFD5
:10316000D02EC6CF912EC7CF8536910584F0C65795
:10317000DF4F28813981CA58D040319521953109D6
:10318000C657DF4F39832883CA58D040DECFC45793
:10319000DF4F99838883CC58D040D7CF0196A11DAB
:1031A000B11D8093AB029093AC02A093AD02B0939B
:1031B000AE028BE891E00197F1F7C8CE69EE73E0BB
:1031C000C3010E94700DC3010E946F0C8111ADCC30
:1031D00088EF9AE2A0E0B0E08093AB029093AC025B
:1031E000A093AD02B093AE0231E0C457DF4F3883F5
:1031F000CC58D040822C912C8091AB029091AC02A3
:10320000A091AD02B091AE028131E7E29E07A10527
:10321000B1050CF489C08091CF038150281619F0B4
:10322000C4010E947106EE24E394F12CC457DF4FD1
:10323000F881CC58D040F11165C0E4E13E2E24E184
:10324000C657DF4F2883CA58D04004E1AA24A3946C
:10325000B12CC657DF4F3881CA58D040432E512C6D
:10326000712C612C762C652C542C4424602A432824
:10327000B701C5010E942106B301A2010E94080105
:10328000C657DF4F8881CA58D040181343C094E115
:10329000C657DF4F9883CA58D040C01241C004E1DE
:1032A000D31040C054E1352EAFEFAA1ABA0ABFE0DE
:1032B000AB16B10471F6EFEFEE1AFE0AF0E1EF166D
:1032C000F10409F0B3CF222D4D2D6C2D812F0E94DA
:1032D000DE0684EF91E00E94140681E0C457DF4FC0
:1032E0002881CC58D0402827C457DF4F2883CC589A
:1032F000D0401092AB021092AC021092AD0210922C
:10330000AE027ACF3D2CC657DF4F1883CA58D04043
:103310000C2D9CCFC657DF4F1883CA58D040BDCF65
:103320000C2DBECF3D2CC0CF0196A11DB11D8093A9
:10333000AB029093AC02A093AD02B093AE028BE8C7
:1033400091E00197F1F758CF69EE73E0C3010E9455
:10335000700DC3010E946F0C8111E7CB88EF9AE2D8
:10336000A0E0B0E08093AB029093AC02A093AD02DA
:10337000B093AE0231E0C457DF4F3883CC58D04011
:10338000822C912C8091AB029091AC02A091AD0265
:10339000B091AE028131E7E29E07A105B1050CF4C0
:1033A00089C08091CF038150281619F0C4010E9472
:1033B0007106EE24E394F12CC457DF4FF881CC580A
:1033C000D040F11165C004E124E1C657DF4F2883E6
:1033D000CA58D04034E1332EAA24A394B12CC65746
:1033E000DF4F3881CA58D040432E512C712C612CAC
:1033F000762C652C542C44246328402AB501C7013F
:103400000E942106B301A2010E940801C657DF4FA6
:103410008881CA58D040181343C094E1C657DF4F83
:103420009883CA58D040C31041C084E1382ED012CE
:103430003FC004E1AFEFAA1ABA0AB0E1AB16B1047B
:1034400071F6EFEFEE1AFE0AFFE0EF16F10409F055
:10345000B3CF222D4D2D6C2D812F0E94DE0684EFDF
:1034600091E00E94140681E0C457DF4F2881CC58B8
:10347000D0402827C457DF4F2883CC58D040109223
:10348000AB021092AC021092AD021092AE027ACF53
:103490000D2DC657DF4F1883CA58D0403C2C9CCF07
:1034A000C657DF4F1883CA58D040BDCF3C2CBFCF82
:1034B0000D2DC0CF0196A11DB11D8093AB0290933D
:1034C000AC02A093AD02B093AE028BE891E00197FD
:1034D000F1F758CFF201B482F7E0C657DF4FF88317
:1034E000CA58D040F6C088E0D2018C9380E1119692
:1034F0008C9311971296AC92129713969C921397F5
:103500001496BC92B3E0C657DF4FB883CA58D04078
:10351000E0C080E6F201808380E98183A282938209
:10352000B48242C0D201FC921196EC92119712968D
:10353000EC9212971396EC9213971496FC921BC080
:10354000F2019082918292829382F4822DC0F201E4
:10355000F082A18280E68283A382F7CFD201EC922F
:103560001196EC9211971296FC9212971396AC92C8
:1035700013971496AC92B5E0C6CFF201F082B182F7
:1035800080EC8283A38284830FC0D201FC921196C7
:10359000BC9211971296FC921297CCCFF201F08256
:1035A000A182A282A382A482F5E097CFD201FC92ED
:1035B0001196EC921197EECFF201F082E182F28245
:1035C000CBCFD201FC921196EC9211971296FC92FD
:1035D00012971396EC9213971496EC92CCCFF201BB
:1035E000B082B182F282E382B0CFD201FC92119616
:1035F000BC9211971296BC9212971396BC92139795
:103600009CCFF201A082A182EDCFD201FC92119653
:10361000BC92119780EC12968C931297EECFF20128
:10362000F082B18280EC8283B3827ACF80EFD201C4
:103630008C931196BC92119790EB12969C931297D3
:1036400090E913969C93139714968C93B4E05BCFF8
:10365000F201E082E182F282E382E482A5CFD2012C
:10366000FC9211969C92119712969C921297139627
:103670009C92139762CFF201A082A182A282B3CF63
:10368000D201EC9280EC11968C9311971296BC9219
:10369000129713968C9313979FCFF201B082B18249
:1036A000B282B38252CFE8EDD201EC9311968C92A4
:1036B000119712968C921297F8EA1396FC9313972F
:1036C00028EA14962C9333E0C657DF4F3883CA5844
:1036D000D04087E090E0C257DF4F99838883CE586F
:1036E000D04041E050E0C257DF4F0880CE58D04074
:1036F00002C0440F551F0A94E2F7D201EFEAF2E04C
:103700002D9182819381022E000C330B24233523CB
:10371000232B09F433C18160938382833296CA5686
:10372000DF4F28813981C659D0402A173B0741F71E
:1037300008E2222D4D2D6C2D812F0E9407078FEA64
:1037400092E0C457DF4F99838883CC58D040C45748
:10375000DF4FA881B981CC58D04012968D919C91B1
:103760001397880F991F13969C938E931297129616
:10377000C457DF4FB983A883CC58D040E9EBF2E0BF
:10378000EA17FB0721F76CE370E080E090E00E940D
:103790000204C257DF4F28813981CE58D0402150D2
:1037A0003109C257DF4F39832883CE58D040C657DE
:1037B000DF4F3881CA58D040231708F092CFCE5639
:1037C000DF4FA881B981C259D0408C918032F9F085
:1037D00008E2222D4D2D6C2D812F0E940707EFEA64
:1037E000F2E082819381880F991F938382833296BE
:1037F000C457DF4F28813981CC58D0402E173F075E
:1038000081F76CE370E080E090E00E940204339462
:10381000C656DF4F3881CA59D040331508F009CA5F
:103820003FE0E32EEFEAF2E082819381880F991F57
:10383000938382833296C457DF4F88819981CC5815
:10384000D0408E179F0781F708E2222D4D2D6C2D59
:10385000812F0E9407076CE370E080E090E00E94F7
:103860000204EA94E110DECFD2C980E9D2018C9340
:1038700090ED11969C93119790EB12969C93129752
:10388000E0CEF201F082E182E282ADCED201FC9282
:103890001196EC9211971296FC9212971396BC9285
:1038A00013971496BC9267CEF201F082E182E28215
:1038B000E38280EC68CED201FC921196EC921197D3
:1038C0001296FC92129780ECE4CEF201F082B18263
:1038D00076CED201FC9211969C92119712969C92F0
:1038E000129713969C92139714969C9244CEF201D1
:1038F000E082C9CFD201EC921196EC921197129608
:10390000EC9212971396EC921397EECF28EAF201FD
:10391000208321838282838238ED348383E0C657FB
:10392000DF4F8883CA58D040D4CED201EC92119692
:10393000FC92119712969C9212971396FC921397F1
:103940004BCEF201E082E182E282938294822CCE1D
:10395000D201FC921196AC92119712969C921297FA
:103960004CCEF201F082F182F282F382EECD27E0BA
:10397000C657DF4F2883CA58D040ABCE8E7FCCCEFF
:1039800069EE73E0C3010E94700D06E9E02E07E0C6
:10399000F02E022D2D2D4C2D612FC3010E94A00C65
:1039A000C4C869EE73E0C3010E94700DAEEDEA2E4B
:1039B000A7E0FA2EEECF69EE73E0C3010E94700D0E
:1039C000F0E0EF2EF8E0FF2EE4CF69EE73E0C301E4
:1039D0000E94700DE2E2EE2EE8E0FE2EDACF69EEF4
:1039E00073E0C3010E94700D66E6E62E68E0F62ED5
:1039F000D0CF69EE73E0C3010E94700D54E8E52E4C
:103A000058E0F52EC6CF69EE73E0C3010E94700D39
:103A100032ECE32E38E0F32EBCCF69EE73E0C30145
:103A20000E94700D9EEFE92E98E0F92EB2CF69EE5C
:103A300073E0C3010E94700D8CE1E82E89E0F82E3E
:103A4000A8CF69EE73E0C3010E94700D0AE3E02E77
:103A500009E0F02E9ECF69EE73E0C3010E94700D65
:103A6000A6E7EA2EA9E0FA2E94CF69EE73E0C3012F
:103A70000E94700DF8E9EF2EF9E0FF2E8ACF69EE73
:103A800073E0C3010E94700D78EDE72E79E0F72E08
:103A900080CF69EE73E0C3010E94700D50E2E52E05
:103AA0005AE0F52E76CF69EE73E0C3010E94700DE7
:103AB00046E4E42E4AE0F42E6CCF69EE73E0C301D5
:103AC0000E94700D34E6E32E3AE0F32E62CF69EEE9
:103AD00073E0C3010E94700D94EAE92E9AE0F92E7A
:103AE00058CF69EE73E0C3010E94700D82ECE82E9E
:103AF0008AE0F82E4ECF8091D0039091D1030E949E
:103B00005C218091CD039091CE0397FD03C060E0CE
:103B10000E94CD028DED93E00E94050C83EE93E0B0
:103B20000E94050C89EE93E00C94050C8F929F92F5
:103B3000AF92BF92CF92DF92EF92FF92CF93DF933B
:103B4000EC01688179818A819B816115710581050C
:103B5000910521F464E279ED8BE597E02DE133EFF7
:103B600041E050E00E945F1F49015A019B01AC01F6
:103B7000A7EAB1E40E947E1F6B017C01ACEEB4EFBA
:103B8000A50194010E948C1FC60ED71EE81EF91EC7
:103B9000F7FE06C081E0C81AD108E10880E8F80AFB
:103BA000C882D982EA82FB82C701B6019F77DF9182
:103BB000CF91FF90EF90DF90CF90BF90AF909F900C
:103BC0008F9008958F929F92AF92BF92CF92DF9283
:103BD000EF92FF92609105017091060180910701BB
:103BE00090910801611571058105910521F464E248
:103BF00079ED8BE597E02DE133EF41E050E00E9455
:103C00005F1F49015A019B01AC01A7EAB1E40E9480
:103C10007E1F6B017C01ACEEB4EFA50194010E9404
:103C20008C1FC60ED71EE81EF91EF7FE06C081E0E7
:103C3000C81AD108E10880E8F80AC0920501D092BC
:103C40000601E0920701F0920801C701B6019F77D3
:103C5000FF90EF90DF90CF90BF90AF909F908F90AC
:103C60000895609305017093060180930701909376
:103C700008010895BB27FB015527AA27880F991F24
:103C8000AA1FA41710F0A41B83955051B9F7A05D8B
:103C9000AA3308F0A95DA193009779F7B111B19308
:103CA0001192CB010C94541EDC01FC01672F719121
:103CB0007723E1F7329704C07C916D937083629112
:103CC000AE17BF07C8F30895E89409C097FB3EF408
:103CD00090958095709561957F4F8F4F9F4F992359
:103CE000A9F0F92F96E9BB279395F69587957795D7
:103CF0006795B795F111F8CFFAF4BB0F11F460FF97
:103D00001BC06F5F7F4F8F4F9F4F16C0882311F0EE
:103D100096E911C0772321F09EE8872F762F05C002
:103D2000662371F096E8862F70E060E02AF09A959D
:103D3000660F771F881FDAF7880F9695879597F992
:103D400008950E94B41E0C94251F0E94171F38F07E
:103D50000E941E1F20F0952311F00C940E1F0C944E
:103D6000141F11240C94591F0E94361F70F3959F45
:103D7000C1F3950F50E0551F629FF001729FBB2762
:103D8000F00DB11D639FAA27F00DB11DAA1F649FFE
:103D90006627B00DA11D661F829F2227B00DA11DB1
:103DA000621F739FB00DA11D621F839FA00D611D37
:103DB000221F749F3327A00D611D231F849F600D58
:103DC000211D822F762F6A2F11249F5750409AF081
:103DD000F1F088234AF0EE0FFF1FBB1F661F771F0D
:103DE000881F91505040A9F79E3F510580F00C94D8
:103DF0000E1F0C94591F5F3FE4F3983ED4F3869551
:103E000077956795B795F795E7959F5FC1F7FE2B77
:103E1000880F911D9695879597F9089597F99F6753
:103E200080E870E060E008959FEF80EC0895002442
:103E30000A941616170618060906089500240A940F
:103E400012161306140605060895092E0394000C95
:103E500011F4882352F0BB0F40F4BF2B11F460FF24
:103E600004C06F5F7F4F8F4F9F4F089557FD90584D
:103E7000440F551F59F05F3F71F04795880F97FB2E
:103E8000991F61F09F3F79F08795089512161306E8
:103E90001406551FF2CF4695F1DF08C01616170617
:103EA0001806991FF1CF869571056105089408954C
:103EB000E894BB2766277727CB0197F90895052E4D
:103EC00097FB1EF400940E94761F57FD07D00E94B6
:103ED000C81F07FC03D04EF40C94761F50954095F4
:103EE000309521953F4F4F4F5F4F089590958095A6
:103EF000709561957F4F8F4F9F4F08950E94EA1FE5
:103F0000A59F900DB49F900DA49F800D911D11242D
:103F10000895B7FF0C947E1F0E947E1F821B930B97
:103F200008952F923F924F925F926F927F928F925D
:103F30009F92AF92BF92CF92DF92EF92FF920F9338
:103F40001F93CF93DF93CDB7DEB7CA1BDB0B0FB642
:103F5000F894DEBF0FBECDBF09942A8839884888FF
:103F60005F846E847D848C849B84AA84B984C88495
:103F7000DF80EE80FD800C811B81AA81B981CE0F8C
:103F8000D11D0FB6F894DEBF0FBECDBFED01089571
:103F9000A1E21A2EAA1BBB1BFD010DC0AA1FBB1F4D
:103FA000EE1FFF1FA217B307E407F50720F0A21BBF
:103FB000B30BE40BF50B661F771F881F991F1A942C
:103FC00069F760957095809590959B01AC01BD0156
:103FD000CF010895A29FB001B39FC001A39F700DB0
:103FE000811D1124911DB29F700D811D1124911D01
:103FF00008950E940D200C94251F0E941E1F58F04A
:104000000E94171F40F029F45F3F29F00C940E1F07
:1040100051110C94591F0C94141F0E94361F68F301
:104020009923B1F3552391F3951B550BBB27AA2771
:1040300062177307840738F09F5F5F4F220F331FAB
:10404000441FAA1FA9F335D00E2E3AF0E0E832D073
:1040500091505040E695001CCAF72BD0FE2F29D076
:10406000660F771F881FBB1F261737074807AB0748
:10407000B0E809F0BB0B802DBF01FF2793585F4FBD
:104080003AF09E3F510578F00C940E1F0C94591F86
:104090005F3FE4F3983ED4F3869577956795B7959F
:1040A000F7959F5FC9F7880F911D9695879597F9AA
:1040B0000895E1E0660F771F881FBB1F6217730723
:1040C0008407BA0720F0621B730B840BBA0BEE1F38
:1040D00088F7E09508950E943E1F88F09F5798F05A
:1040E000B92F9927B751B0F0E1F0660F771F881FFD
:1040F000991F1AF0BA95C9F714C0B13091F00E9417
:10410000581FB1E008950C94581F672F782F882707
:10411000B85F39F0B93FCCF3869577956795B3953D
:10412000D9F73EF490958095709561957F4F8F4FAC
:104130009F4F0895991B79E004C0991F961708F0C6
:10414000961B881F7A95C9F780950895AA1BBB1BFB
:1041500051E107C0AA1FBB1FA617B70710F0A61B87
:10416000B70B881F991F5A95A9F780959095BC01A8
:10417000CD010895EE0FFF1F0590F491E02D0994F5
:104180000F931F93CF93DF938230910510F482E059
:1041900090E0E091F103F091F20330E020E0B0E034
:1041A000A0E0309799F42115310509F44AC0281B85
:1041B000390B24303105D8F58A819B816115710551
:1041C00089F1FB0193838283FE0111C040815181FB
:1041D0000281138148175907E0F04817590799F4ED
:1041E000109761F012960C93129713961C933296C7
:1041F000CF01DF91CF911F910F9108950093F103AB
:104200001093F203F4CF2115310551F042175307F3
:1042100038F0A901DB019A01BD01DF01F801C1CF2E
:10422000EF01F9CF9093F2038093F103CDCFFE011C
:10423000E20FF31F81939193225031093983288330
:10424000D7CF2091EF033091F003232B41F420913D
:104250000B0130910C013093F0032093EF03209178
:10426000090130910A012115310541F42DB73EB7FE
:1042700040910D0150910E01241B350BE091EF038D
:10428000F091F003E217F307A0F42E1B3F0B281761
:10429000390778F0AC014E5F5F4F2417350748F0BF
:1042A0004E0F5F1F5093F0034093EF038193919360
:1042B0009FCFF0E0E0E09CCFCF93DF930097E9F051
:1042C000FC01329713821282A091F103B091F203A4
:1042D000ED0130E020E01097A1F420813181820FC0
:1042E000931F2091EF033091F0032817390709F04D
:1042F00061C0F093F003E093EF03DF91CF91089555
:10430000EA01CE17DF07E8F54A815B819E0141157E
:104310005105B1F7E901FB83EA8349915991C40F33
:10432000D51FEC17FD0761F4808191810296840FFF
:10433000951FE90199838883828193819B838A8376
:10434000F0E0E0E012968D919C9113970097B9F5FB
:104350002D913C911197CD010296820F931F2091D0
:10436000EF033091F0032817390739F6309751F5EC
:104370001092F2031092F103B093F003A093EF03B5
:10438000BCCFD383C28340815181840F951FC8174E
:10439000D90761F44E5F5F4F88819981480F591F9B
:1043A000518340838A819B819383828321153105C8
:1043B00009F0B0CFF093F203E093F1039ECFFD013B
:1043C000DC01C0CF13821282D7CFB0E0A0E0EBEEC9
:1043D000F1E20C94931F8C01009751F4CB010E94E1
:1043E000C0208C01C801CDB7DEB7E0E10C94AF1F4F
:1043F000FC01E60FF71F9C0122503109E217F30779
:1044000008F49DC0D901CD91DC911197C617D7074B
:1044100098F0C530D10530F3CE0104978617970781
:1044200008F3C61BD70B2297C193D1936D937C934E
:10443000CF010E945C21D6CF5B01AC1ABD0A4C01B2
:104440008C0E9D1EA091F103B091F203512C412CD2
:10445000F12CE12C109731F58091EF039091F0034E
:104460008815990509F05CC04616570608F058C033
:104470008091090190910A01009741F48DB79EB790
:1044800040910D0150910E01841B950BE817F9071F
:1044900008F055C0F093F003E093EF03F901718346
:1044A0006083A0CF8D919C91119712966C9012977A
:1044B00013967C901397A815B90559F56C0142E045
:1044C000C40ED11CCA14DB0420F1AC014A195B09EB
:1044D000DA011296159780F06282738251834083CD
:1044E000D9016D937C93E114F10471F0D701139617
:1044F000FC93EE93129776CF22968C0F9D1FF901B5
:1045000091838083F301EFCFF093F203E093F10303
:1045100069CF4816590608F42C017D01D3019ACFC2
:10452000CB010E94C0207C01009749F0AE01B80188
:104530000E94A222C8010E945C21870153CF10E093
:1045400000E050CFFB01DC0102C001900D92415010
:104550005040D8F70895FB01DC018D91019080193E
:104560000110D9F3990B0895FB01DC0101900D9224
:104570000020E1F7089510E0CDEDD0E004C0FE0189
:104580000E94BA202196CE3DD107C9F7F894FFCFFB
:10459000FFFFFFFFFF010000000000F303800000A9
:1045A00000000014027401A1016102D201B001C433
:1045B0000100000000E205B50511068B05AE059B64
:1045C000058C050A496E69636961646F206F204933
:1045D0003263206E6F20656E64657265C3A76F3AA3
:1045E00020307830002020446563696D616C3A208A
:1045F000000A203C3C204D4F444F20444542554743
:10460000203E3E000A204C656E646F2061204545C7
:1046100050524F4D2E2E2E000A20454550524F4DE0
:10462000204C696461000A436F64653A00523A00A5
:10463000473A00423A0042723A000A517464654DAA
:1046400073673A000A4D73673A000A5363616E203C
:1046500066696E616C697A61646F2E2050726F6357
:10466000657373616E646F20436F6D616E646F2E4E
:104670002E2E0A000A5363616E2066696E616C69B2
:104680007A61646F2E204E6F766F205363616E20C7
:10469000656D2031206D696E75746F2E2E2E0A00A7
:1046A0000A496E696369616E646F206F20536361AC
:1046B0006E20646120454550524F4D206E6F7661EB
:0846C0006D656E74650A0A00C5
:00000001FF
